:100000000C945D040C94A4040C94A4040C94A40417
:100010000C94A4040C94A4040C94A4040C94A404C0
:100020000C94A4040C94A4040C9432120C94EE11BD
:100030000C948B230C94A4040C94A4040C94A4049A
:100040000C94A4040C94A4040C94A4040C94A40490
:100050000C94A4040C94240E0C94A4040C94A404F6
:100060000C94A4040C94A4040C94A4040C94A40470
:100070000C94A4040C94A4040C94A4040C94A40460
:100080000C94A4040C94A4040C94A4040C94A40450
:100090000C94A4040C94A4040C94A4040C94A40440
:1000A0000C94A4040C94A4040C94A4040501090267
:1000B000A10185020901A100050919012905150001
:1000C00025019505750181029501750381010501E1
:1000D000093009311581257F950275088106093897
:1000E0001581257F950175088106050C0A380215D2
:1000F00081257F950175088106C0C005010980A191
:1001000001850319012AB700150126B7009501756D
:10011000108100C0050C0901A101850419012AA064
:1001200002150126A002950175108100C00660FF2E
:100130000961A1010962150026FF0095207508815B
:10014000020963150026FF00952075089102C0057D
:10015000010906A101050719E029E7150025019508
:1001600008750181029501750881010507190029AB
:10017000FF150026FF009506750881000508190186
:100180002905950575019102950175039101C0A896
:1001900000AE00AC00AB0011500100AD00BC00BBD4
:1001A00000105000AF000000000000000000000040
:1001B0000000000000000000007E0F00D4FFFFFFE1
:1001C000C70000007800000000000000002A2B2873
:1001D000000000000000000000000000000000001F
:1001E00029000000002C1E3420212224342627253B
:1001F0002E362D3738271E1F202122232425263373
:1002000033362E37381F0405060708090A0B0C0D74
:100210000E0F101112131415161718191A1B1C1D86
:100220002F3130232D350405060708090A0B0C0D64
:100230000E0F101112131415161718191A1B1C1D66
:100240002F3130354C00DA02818FD9F1DB40A4A682
:100250002EAF00A0C000A1C800AED580A81FD3005B
:10026000408D142000200020001F0020001E0020D0
:1002700000AAAB008A8B00B0B100909100B2B3002D
:10028000929300C4C500A4A500C2C300A2A300C0ED
:10029000C100A0A100ACAD008C8D00AEAF008E8F70
:1002A00000C6C700A6A700D9DA00B9BA00554E4467
:1002B00046004252475400564F4C200084858687A2
:1002C00000202020202000554E444600324E44207D
:1002D000003153542000808182830000AE09025B0C
:1002E00000030100A0FA0904000001030101000954
:1002F00021110100012240000705810308000A09BD
:100300000401000203000000092111010001222262
:1003100000070582032000010705030320000109EF
:1003200004020001030000000921110100012281E3
:10033000000705840320000A1201100100000008D4
:100340005953344E01000102030104033000000040
:100350000803500069007800000014037300650072
:100360006E0064007900790065006100680000009B
:1003700004030904A8A90088890000000000000007
:100380003E5B4F5B3E003E6B4F6B3E001C3E7C3E37
:100390001C00183C7E3C18001C577D571C001C5E3E
:1003A0007F5E1C0000183C180000FFE7C3E7FF0059
:1003B000001824180000FFE7DBE7FF0030483A068A
:1003C0000E00262979292600407F05050700407F79
:1003D00005253F005A3C663C5A007F3E1C1C080025
:1003E000081C1C3E7F0014227F2214005F5F005F08
:1003F0005F0006097F017F00006689956A006060E2
:100400006060600094A2FFA2940008047E040800CB
:1004100010207E20100008082A1C0800081C2A084A
:1004200008001E10101010000C1E0C1E0C0030389E
:100430003E383000060E3E0E0600000000000000B0
:1004400000005E000000000600060000143E143E9E
:100450001400242A7F2A1200261608343200364A55
:1004600056205000000A06000000003C4200000038
:100470000000423C00002A1C3E1C2A0008083E08DE
:10048000080000A06000000008080808080000003C
:10049000606000002010080402003C4242423C0020
:1004A00000447E400000645252524C0022424A4AAC
:1004B00036003824227E20002E4A4A4A32003C4A26
:1004C0004A4A32000202621A0600344A4A4A34009A
:1004D0004C5252523C000000140000000040340016
:1004E000000000081422000014141414140000006A
:1004F000221408000004520A04003E415D594E00D7
:100500007C1212127C007E4A4A4A34003C4242422B
:1005100042007E4242423C007E4A4A4A4A007E0AEB
:100520000A0A0A003C42425272007E0808087E0015
:1005300000007E0000002040423E00007E100814B3
:1005400062007E40404040007E0408047E007E043D
:1005500008107E003C4242423C007E1212120C0007
:100560003C4252225C007C1212325E004C4A4A4AE3
:10057000320002027E0202003E4040403E001E2049
:1005800040201E003E4038403E00621408146200C5
:1005900006087008060062524A464200007E424247
:1005A0000000020408102000000042427E000804FF
:1005B000020408004040404040000000060A0000DD
:1005C000605454547C007E484848300030484848C5
:1005D0004800304848487E003854545458000008B9
:1005E0007C0A000098A4A4A478007E080808700083
:1005F00000007A0000002040403A00007E102844AD
:10060000000000007E4000007C04780478007C0438
:1006100004047800384444443800FC24242418009E
:1006200018242424FC007C08040408004854545472
:10063000240000047E4400003C4040407C001C201C
:1006400040201C003C4030403C004428102844001E
:100650005CA0A0A07C004464544C4400FEC1C1C90D
:10066000C5DDC5C9C1C1FE00FCFEFEEEF6C6F6EE54
:10067000FEFEFC003C2623263C007EFF81BFBFBF60
:10068000BFF9F78FF7F9FF83EDEDCDA3FF7E0000F3
:1006900000007EFF81B5B5B5B5FF81FBF7EF81FFA7
:1006A000C3BDBDBDBDFF7E000000FE01F1F1090527
:1006B000FD91619101FEFE01FDF9F16101FD01FD78
:1006C00001FEFE0161F1F9FD61F1F9FD01FEFE019E
:1006D000FDF9F161FDF9F16101FEFE0101FD01612C
:1006E000F1F9FD0101FEFE0101FDF9F16101FD01DC
:1006F00001FE000000000000F00804C4242424C40B
:100700000408F000F0F8FC3CDCDCDC3CFCF8F00019
:10071000FEC1C1C9C5DDC5C9C1C1FE00FCFEFEEEFA
:10072000F6C6F6EEFEFEFC00000000000000000031
:1007300000000000000000000000FE0101F9F9F9CE
:10074000F9F9F90101FEFE01E1E11109F90109F1EF
:1007500001FEFE01012131F9F931210101FEFE0105
:100760000141C1F9F9C1410101FE07080808090A60
:100770000B080808080707080B090808080B080BEE
:10078000080707080808090B0808090B08070708E5
:100790000B0908080B09080808070708080B0808D0
:1007A00008090B0808070708080B090808080B08C0
:1007B00008070000000000000708101311111113B2
:1007C00010080700070F1F1C1E1E1E1C1F0F07000E
:1007D000FE01F1F9FDFD050509F101FE0000000033
:1007E0000000000000000000000000000000000009
:1007F00000000000000000000000070808090909C7
:1008000009090908080707080808090A0B08090860
:10081000080707080808080909080808080707085A
:100820000808080909080808080700000004063F2E
:100830003F060400000000000008183F3F180800B1
:1008400000001C1C22417F0010181C1810001C1CEA
:1008500022417F00040C1C0C04001C3E3E221C00A4
:1008600010181C1810001C3E3E221C00040C1C0C0E
:100870000400000000000000000000000000000074
:100880000000000000000000000000000000000068
:10089000070808090B0B0A0A0908080700000000EE
:1008A0000000000000000000000000000000000048
:1008B0000000000000000000000011241FBECFEF68
:1008C000DAE0DEBFCDBF04B603FE27C08091360458
:1008D00090913704A0913804B09139048730904B3F
:1008E000A740B04BD1F41092360410923704109206
:1008F00038041092390414BE84B7877F84BF0FB6C2
:10090000F894A895809160008861809360001092AF
:1009100060000FBEE0E0F8E3099511E0A0E0B1E06F
:10092000EAEDFAE402C005900D92A037B107D9F7BD
:1009300024E0A0E7B1E001C01D92A633B207E1F7C1
:100940000E94DB1C0C9434250C940000E8EDF0E0D0
:1009500080818E7F80831092E2001092DA001092E4
:10096000E100A0EEB0E08C9181608C9380818F7764
:10097000808319BCA7EDB0E08C918E7F8C93808131
:100980008F7E80831092100208952091E4003091B0
:10099000E50095E6A9012091EC00822F817020FFEF
:1009A00006C08091E80080FF06C080E00895209195
:1009B000E80022FD1AC080912602882389F0853044
:1009C00089F08091EB0085FD0FC02091E40030910B
:1009D000E50042175307F9F29150E1F684E00895DB
:1009E00082E0089583E0089581E00895EF92FF92F8
:1009F0000F931F93CF937C018B010E94C504C82FD6
:100A0000811117C08091E80085FD0BC08091E8003E
:100A10008E778093E8000E94C504882399F3C82F3D
:100A200008C0F70181917F018093F1000150110905
:100A300049F78C2FCF911F910F91FF90EF90089560
:100A4000CF93FC0180912602843001F5C091E9002A
:100A5000CF702091EC00922F917020FD90E8C92B6F
:100A600082E08093E9008091E80080FF0CC050E0B4
:100A700040E060E270E0CF010E94F6048091E8005F
:100A80008E778093E800CF70C093E900CF910895EE
:100A900080911E0287FF13C08091E80082FF06C08C
:100AA0008091E8008B778093E80004C08091260253
:100AB0008111F2CF0895809126028823D9F3809185
:100AC000E80080FFF8CF8091E8008E77ECCF982F78
:100AD0009093E900242F762F50E0891731F0709120
:100AE000EC002091ED005091F00021FD07C09F5FC8
:100AF000973071F78093E90081E008953091EB0021
:100B00003E7F3093EB003091ED003D7F3093ED0060
:100B10003091EB0031603093EB007093EC00209348
:100B2000ED005093F0002091EE0027FDE0CF80E033
:100B30000895CF92DF92EF92FF920F931F93CF937E
:100B4000DF93C8EDD0E088818F7E8883E7EDF0E009
:100B500080818160808384E082BF81E08093100285
:100B600088818E7F888302EE10E0F8011082109257
:100B7000DA0081EEC82ED12CF601108288818F77A1
:100B8000888388818068888388818F7D888319BC69
:100B90001092260210921D0210921C0210921B024B
:100BA00090EEE92EF12CF70180818B7F8083888184
:100BB0008160888342E060E080E00E946705F60182
:100BC00080818E7F8083F801808181608083808135
:100BD00088608083F70180818E7F80838881806137
:100BE0008883DF91CF911F910F91FF90EF90DF905D
:100BF000CF900895FC0180912402909125028617E0
:100C00009707A0F06115710529F49091E8009E778F
:100C10009093E80090E06115710551F4911108C0BE
:100C20008091E80082FF34C080E00895BC01F2CFDB
:100C3000809126028823C1F18530C1F18091E800BE
:100C400083FD30C08091E80082FDEACF8091E8000A
:100C500080FFE1CF8091F3002091F200382F6115E1
:100C6000710519F02830310558F091E02830310530
:100C700009F090E02091E8002E772093E800CBCF98
:100C800081918093F100615071092F5F3F4FE7CF51
:100C900080912602882341F0853041F08091E80060
:100CA00083FFBECF81E0089582E0089583E0089538
:100CB00080912602843011F482E0089581E0089545
:100CC00080911202089590910802803F41F4809132
:100CD000090287FD10920902992371F00895813F5E
:100CE00029F4809109021816ACF3F6CF823F81F403
:100CF00097FFF2CF109208028091090290910A02A8
:100D0000892B90910B02892B49F7109203020895C9
:100D1000833F19F4191674F3DFCF893F39F48091BA
:100D20000A021816CCF610920A02D6CF8A3F29F48E
:100D300080910A0287FFD0CFF6CF8B3F39F48091A4
:100D40000B0287FFC9CF10920B02C6CF8C3F29F44C
:100D500080910B021816BCF3BFCF843F31F4809111
:100D600007028E7F80930702B7CF853F21F48091E1
:100D700007028D7FF7CF863F21F4809107028B7F9A
:100D8000F1CF873F21F480910702877FEBCF883F27
:100D900021F4809107028F7EE5CF8D3F31F4809161
:100DA000CD018E7F8093CD0197CF8E3F21F480912E
:100DB000CD018D7FF7CF8F3F09F08ECF8091CD0190
:100DC0008B7FF0CF8091CD0180FD16C081FD16C0D4
:100DD00082FD16C0809103028823A1F0883280F43E
:100DE00028E0829FC001112468E270E00E94BB24C9
:100DF000862F672B39F0089582E0089584E00895E6
:100E000088E0089581E008958091CD0180FD14C0AF
:100E100081FD14C082FD16C080910302882381F0F9
:100E2000843180F422E3829FC001112464E170E0E8
:100E30000E94BB24862F08958CE0089589E10895CF
:100E400085E0089582E30895803F31F40E9404070D
:100E50008195809309020895813F19F40E94040747
:100E6000F8CF823F31F40E940407819580930802F5
:100E70000895833F19F40E940407F8CF893F29F4AD
:100E80000E94E20680930A0208958A3F21F40E949C
:100E9000E2068195F7CF8B3F31F40E94E2068195FF
:100EA00080930B0208958C3F19F40E94E206F8CF5C
:100EB000843F31F480910702816080930702089596
:100EC000853F21F4809107028260F7CF863F21F4AD
:100ED000809107028460F1CF873F21F4809107025F
:100EE0008860EBCF883F21F4809107028061E5CFD5
:100EF0008D3F31F48091CD0181608093CD010895C3
:100F00008E3F21F48091CD018260F7CF8F3FB9F7FA
:100F10008091CD018460F1CF87E797E79093010836
:100F20008093000888E19AE00FB6F894A895809322
:100F300060000FBE90936000FFCF9C014FB7F89404
:100F40008091C9019091CA01A091CB01B091CC01CF
:100F50004FBF821B930B08952FB7F8946091C9017E
:100F60007091CA018091CB019091CC012FBF08955F
:100F7000CF92DF92EF92FF926C01EE24FF2420E0EB
:100F8000C114D104E104F10419F0C701B60120E154
:100F9000C72ED82EE92EFF24C114D104E104F10498
:100FA00019F0285FC701B6016B017C0154E0F6948B
:100FB000E794D794C7945A95D1F7C114D104E104AA
:100FC000F10419F02C5FC701B6016B017C0142E00E
:100FD000F694E794D794C7944A95D1F7C114D104F5
:100FE000E104F10419F02E5FC701B60196958795CB
:100FF00077956795672B682B692B09F02F5F822FF8
:10100000FF90EF90DF90CF9008958091C4018111FF
:101010001092C40108958091C3019091C201892B5F
:101020009091C101892B809370019091C401992303
:1010300091F0892B8093700120E082E791E0FC0120
:101040003191CF0131112F5FF1E088379F07B9F758
:1010500021110E940508E091D101F091D201309751
:1010600031F00280F381E02D80E791E0099408954A
:10107000E2E7F1E09191891303C0DF0111971C921F
:1010800091E0E837F907B1F70895A2E7B1E0EFEF93
:1010900090E02D91821751F0EF3F19F4211101C01A
:1010A000E92F9F5F9630A9F7EF3F09F408950E2EC0
:1010B000000CFF0BE059FE4F82830895E92FEE0FDD
:1010C000EE0F9E0F890F982F9770869586958695BF
:1010D00025E0829FF0011124E554FE4F50E040E0EE
:1010E00080E0219130E0092E02C0369527950A94C0
:1010F000E2F721703327042E01C0220F0A94EAF789
:10110000822B4F5F5F4F4530510559F70895E92F06
:10111000EE0FEE0F9E0F890F982F977041E001C0E0
:10112000440F9A95EAF786958695869595E0899F6E
:10113000F0011124E554FE4F30E020E070E05191C1
:10114000DF011197CB01022E02C0969587950A9474
:10115000E2F7817081958527842385278C932F5F03
:101160003F4F2530310559F708958091BA0190918C
:101170008901981301C008958F5F8770FACF882383
:1011800041F080959091C30189238093C3010C9411
:101190000B080895882339F09091C301982B909300
:1011A000C3010C940B08089520917F0130918001B8
:1011B0002817390771F09093800180937F01E091A7
:1011C000D101F091D201309721F00084F185E02D1A
:1011D0000994089520917D0130917E0128173907E7
:1011E00071F090937E0180937D01E091D101F091A7
:1011F000D201309721F00680F781E02D09940895FF
:10120000E091D101F091D201309721F00190F0816D
:10121000E02D099480E0089520912B0236E0839F11
:10122000C0011124629F800D911D1124811522E0BF
:10123000920714F090E080E0825D9D4F909335041A
:101240008093340408959091CF0192FF06C0282F17
:1012500028712830F9F4877F846093FF06C0282F17
:1012600028712831F1F4877E84612091D00120FF1C
:1012700006C0382F38713830D9F4877F816021FF5C
:1012800006C0282F28712831D1F4877E816194FD12
:10129000877E0895282F24712430F9F68B7F88608B
:1012A000DCCF282F2471243101F78B7E8861DDCFBC
:1012B000382F3171313019F78E7F8860E0CF282FB9
:1012C0002171213121F78E7E8861E1CFCF93DF93A9
:1012D000C0913404D09135048A30C1F420912B029E
:1012E000CE018E529240622F70E00E94A724281BEC
:1012F000822F66E00E949B24C82FC15018F4DF9112
:10130000CF91089580E20E946609F7CF8D30E9F40D
:10131000CE52D24020912B02622F70E0CE010E946B
:10132000A724281B822F9E01280F311D2115324032
:1013300018F080E0D0E0C0E0C80FD11DC25DDD4FE5
:10134000D0933504C0933404DACF96E0FE01AEE2C8
:10135000B4E001900D929A95E1F7803E08F454C0F4
:1013600086E0FE0111928A95E9F7C0913404D0918C
:10137000350446E050E0BE018EE294E00E94E52490
:10138000CE52D2409E012A5F3F4F892B21F185E04A
:10139000D695C7958A95E1F741E050E0CA0102C0B1
:1013A000880F991FCA95E2F760912C0270912D0267
:1013B000862B972BB901E5E076956795EA95E1F7DD
:1013C00002C0440F551F6A95E2F7842B952B90932A
:1013D0002D0280932C0240912B02642F70E0C901F2
:1013E0000E94A724481B463010F4240F311D2115FC
:1013F00082E0380710F030E020E0225D3D4F30936E
:101400003504209334047BCFF6E08F9FB001112484
:1014100066587C4F46E050E0CE010E94DC24A5CF08
:10142000CF93DF93EC01FE018491811103C0DF9122
:10143000CF9108950E9466092196F5CF62E080E081
:101440000E940C0987E793E00E94100A63E080E0A5
:101450000E940C0984E793E00C94100ACF92DF926B
:10146000EF92FF920F931F93CF93DF936C017B0159
:1014700064E670E088E70E94B823EC0197FD12C093
:1014800010E000E0F601E00FF11F849164E670E0E7
:101490000E941424EC01892B29F40F5F1F4F0E15B5
:1014A0001F0581F70E949724CE01DF91CF911F91F4
:1014B0000F91FF90EF90DF90CF9008950E94AC07BE
:1014C0006054784D864F9F4F6093F9017093FA01F5
:1014D0008093FB019093FC018091FD01811108C074
:1014E00062E070E083EA91E00E942E0A892B19F0F5
:1014F0008091FD01089581E08093FD01F9CFCF93A4
:10150000DF9300D00F92CDB7DEB7909126029430D2
:1015100011F589837B836A839093E9008FEF909123
:10152000E800815095FD06C095ED9A95F1F7000011
:101530008111F5CF8091E80085FF0DC050E040E0BB
:1015400063E070E0CE0101960E94F6048091E8000D
:101550008E778093E8000F900F900F90DF91CF91DE
:101560000895CF93DF93EC010E945806823011F06A
:10157000843031F4BE0184E0DF91CF910C947F0A76
:10158000DF91CF910895BC0183E00C947F0ACF9343
:10159000DF93EC010E945806823011F08430F9F498
:1015A00084E08093E9008FEF9091E800815095FDF1
:1015B00006C095ED9A95F1F700008111F5CF809165
:1015C000E80085FF0CC050E040E066E070E0CE012E
:1015D0000E94F6048091E8008E778093E800DF9106
:1015E000CF910895CF93DF93EC010E94580682308B
:1015F00011F0843039F581E08093E9008FEF90910C
:10160000E800815095FD06C095ED9A95F1F7000030
:101610008111F5CF8091E80085FF14C050E040E0D3
:1016200068E070E0CE010E94F6048091E8008E77B9
:101630008093E80088E0FE01A3E1B2E001900D9202
:101640008A95E1F7DF91CF910895CF9384E090E000
:101650000E94F224C82F81E290E00E94F224982F89
:101660008C2FCF9108950F931F93CF93DF939AE020
:10167000C42FD0E0CC0FDD1F699FC00DD11D1124F8
:10168000899FC00DD11D1124CE0186960E94F2249F
:10169000082F10E0102F0027CE0187960E94F22419
:1016A0009801282BC901DF91CF911F910F910895C7
:1016B000462F843038F4711105C0653018F460E0AD
:1016C0000C94330B90E080E00895CF93DF930E9459
:1016D000580BEC0182389105A9F1D8F581339105B9
:1016E00009F496C048F58932910509F48AC08A97B1
:1016F00009F495C0C11521E5D20708F0BCC0C11599
:1017000030E5D30708F014C1C83ED10508F09CC0ED
:10171000C03ED10560F5C83AD10508F087C0C53A8A
:10172000D10508F0FDC0C130D10509F12097F9F0CD
:10173000C430D105E0F440C08533910509F45AC0A6
:10174000C997C1F68091CF01837089F0C0EED0E0D7
:101750000EC0833E910599F170F4803E910501F130
:10176000823E910539F68091CF0182FD21C0CE01E4
:10177000DF91CF910895863E910561F1873E9105F5
:1017800071F1843E910509F0B5CF8091D00181FFC0
:10179000EECF8091CF01C7EED0E084FD0DC0E7CF42
:1017A0008091CF0180FD12C19091D00190FFDFCFD9
:1017B000C3EED0E084FFDBCFD0E0C0E0D8CF809193
:1017C000CF0182FD06C19091D00190FDBFCF84FF73
:1017D000CECFF2CF8091CF0183FDDDCFC8CF8091F6
:1017E000CF0183FDF9C09091D00191FFF0CFC4EEFD
:1017F000D0E0BDCF8091CF0185FFB9CFC9E2D0E065
:10180000B6CF8091CF0185FFB2CFC5E3D0E0AFCF97
:101810008091CF0186FFABCFCAE2D0E0A8CF809104
:10182000CF0186FFA4CFC1E3D0E0A1CFCF3BD1054C
:1018300018F6C85AD0E0CC0FDD1FCB5EDE4F099002
:10184000D881C02DD46493CFC11540E2D40758F499
:10185000C11581E0D80708F08ACFC03FD10508F450
:10186000ABCFD06584CFC11590E4D90708F4A4CFDD
:10187000DF70D06A7CCFC11525E5D20700F5C11510
:1018800034E5D30708F08AC0C11543E5D40708F052
:1018900071C0C11582E5D80708F467C0CE01837016
:1018A000992721E030E002C0220F331F8A95E2F72A
:1018B000C695C69580E2C89FE001112452C0C115AB
:1018C00099E5D907A8F4C11528E5D20708F06BC03F
:1018D000C11536E5D30708F06FCF8C2F0E9423097E
:1018E000C82FD0E0DC2FCC27CC27DF71D0623FCFD0
:1018F000C1154AE5D40708F45BC0CE0190568115A6
:10190000904208F059CF8D2F8F710E94230990E0EB
:10191000982F882788279F719C012C2BE901E6CFFF
:10192000C55AD0E0CE5EDE4FC881D0E0D0641FCF74
:10193000CE01E4E096958795EA95E1F783702C2F28
:1019400026952695237040E2249F90011124382B80
:101950008C2F8370C1E0D0E002C0CC0FDD1F8A95D0
:10196000E2F7C22BD32BDC6802CFDC2FCC27C16F70
:10197000D06AFDCECE018370992721E030E002C00D
:10198000220F331F8A95E2F7C695C69590E2C99F4C
:10199000E0011124C22BD32BDA68E9CEDC2FCC274F
:1019A000C46FD06AE4CEDC2FCC27C06FD06ADFCE04
:1019B0008C2F8F700E94230934E0D695C7953A95F5
:1019C000E1F7CF709C2FEC01D069D1CEC9E3D0E014
:1019D000CECEC2EED0E0CBCEC6EED0E0C8CEBF9227
:1019E000CF92DF92EF92FF920F931F93CF93DF93EB
:1019F0008C01C0902702D0902802E0902902F0903C
:101A00002A028091C5019091C601A091C701B091B1
:101A1000C801C82AD92AEA2AFB2ACFE1D0E0BC2E85
:101A2000D701C6010C2E04C0B695A795979587954A
:101A30000A94D2F780FD0EC0219788F7B12C8B2D28
:101A4000DF91CF911F910F91FF90EF90DF90CF909A
:101A5000BF900895B8018C2F0E94650B019761F328
:101A6000EECFCF93DF93EC010E94EF0CBE01DF912C
:101A7000CF910C94650B0E94310D292F2F709295F8
:101A80009F7092509E3078F4E92FF0E0EA5CFA4DB6
:101A90000C94CF24803F19F020F4883E20F481E09C
:101AA0000895843FE1F380E00895883EC0F3813FCC
:101AB000D1F7F5CF822F8695869586950895AF92BA
:101AC000BF92CF92DF92EF92FF920F931F93CF932B
:101AD000DF938FE8C82E81E0D82E00E310E0E80104
:101AE0002A977601F701A590B4906B2DCE010E9444
:101AF00000256A2DCE0101960E94002582E0E80EA5
:101B0000F11C2296C017D10769F78AE0C80ED11CD4
:101B10008E01065F1F4F0835110509F7DF91CF9140
:101B20001F910F91FF90EF90DF90CF90BF90AF90FB
:101B30000895CF93DF93CEE4D0E060E0CE010E9421
:101B400000252196C11584E0D807B9F7DF91CF9120
:101B50000895CF93C82F6FEF811160E282E290E089
:101B60000E9400256FEFC11162E183E290E00E94C4
:101B700000256FEFC11160E184E290E0CF910C94F9
:101B800000256CEE7EEF90E080E00E941E2560E074
:101B900082E090E00E94002560E083E090E00E94F7
:101BA00000251092C5011092C6011092C701109233
:101BB000C80160E084E090E00E94002560E081E2DE
:101BC00090E00E94002560E085E090E00E94002502
:101BD00060E086E090E00E9400256FEF87E090E0F3
:101BE0000E94002540E050E0BA0188E090E00E94A9
:101BF000122560E08DE090E00E94002540E050E07A
:101C0000BA0188E190E00E94122560E087E190E04F
:101C10000E94002540E050E0BA018CE190E00E9473
:101C2000122560E080E290E00E94002540E050E054
:101C3000BA018FE090E00E94122540E050E0BA0126
:101C400083E190E00C94122578941F921FB61F92A6
:101C500011248F939F93AF93BF938091C90190916B
:101C6000CA01A091CB01B091CC010196A11DB11D7B
:101C70008093C9019093CA01A093CB01B093CC018A
:101C8000BF91AF919F918F911F901FBE1F9018958C
:101C90002FB7F8948091C9019091CA01A091CB010E
:101CA000B091CC012FBF0895E091D101F091D20104
:101CB000309749F082E0809306020480F581E02DA0
:101CC00086E092E009950E94480E9093020280936C
:101CD000010208951092C2011092C1010E940B08E6
:101CE00086E0E6E0F2E0DF011D928A95E9F71092C6
:101CF00003021092CD010E94540E90E080E00E94F9
:101D0000EA0890E080E00C94D40860932702709376
:101D100028028093290290932A020C946A0E0F9352
:101D20001F9360912702709128028091290290915F
:101D30002A028B019C0106701127222733270630C7
:101D400011052105310529F468601F910F910C944C
:101D5000850E677FFACF0F931F9341E050E060E05C
:101D600070E004C0440F551F661F771F8A95D2F795
:101D7000CB01BA01609570958095909500912702EE
:101D8000109128022091290230912A0260237123A8
:101D9000822393231F910F910C94850E9091C00183
:101DA000809589238093C001282F277071F4282FF4
:101DB000082E000C330B9217130639F08595859584
:101DC00085950E94AB0E1092C00108950F931F934A
:101DD00041E050E060E070E004C0440F551F661F12
:101DE000771F8A95D2F78091270290912802A091BF
:101DF0002902B0912A028A019B01082B192B2A2B58
:101E00003B2BC901B8011F910F910C94850E609373
:101E1000C5017093C6018093C7019093C8010C94CB
:101E20006A0E1092C301E2E7F1E086E0DF011D9245
:101E30008A95E9F70C946A0E1F93CF93DF93CDB781
:101E4000DEB7AA970FB6F894DEBF0FBECDBF8EE106
:101E500092E02091F100DC012D93CD01B2E08632B9
:101E60009B07B9F780911F02833009F471C0B8F461
:101E7000813009F448C0823009F4B2C08091E80092
:101E800083FF3AC180911E0290911F029A3008F0A0
:101E900033C1E92FF0E0EC5BFA4D0C94CF248A308B
:101EA00009F48DC08B3009F470C0893039F7809106
:101EB0001E02813219F7809122029091230200972D
:101EC00011F00297D9F68091E800877F8093E800AF
:101ED0008091E80082FF37C09091F3008091F2007A
:101EE000029729F48091F1008B7F813021F4809159
:101EF000F100809312028091E8008B778093E800D4
:101F00000E944805BBCF80911E02813A09F0B6CFEE
:101F10008091E800877F8093E80080912202909171
:101F20002302892B61F468E083E192E070E00E9473
:101F3000FA058091E8008B778093E8009FCF60E0FE
:101F400090E080E0F3CF809126028111C1CF96CF3F
:101F500080911E02813A09F091CF809122029091E6
:101F60002302892B09F08ACF8091E800877F809334
:101F7000E8008091E80080FFFCCF80911101809300
:101F8000F1008091E8008E77B9CF80911E028132F6
:101F900009F074CF8091220290912302892B09F0DD
:101FA0006DCF8091E800877F8093E8000E9448050C
:101FB00080912002809311010E94110F5FCF8091C8
:101FC0001E02813209F05ACF8091E800877F80930A
:101FD000E8000E94480580912102809311024ECFB3
:101FE00080911E02813A09F049CF8091E800877FF5
:101FF0008093E8008091E80080FFFCCF809111027F
:10200000BECF803899F0823809F076C080912202E4
:102010008F70873008F070C08093E9008091EB00EA
:1020200085FB882780F91092E90006C080911B0289
:1020300090911C02911182609091E800977F90939B
:10204000E8008093F1001092F1008091E8008E7713
:10205000C0C1882309F4ADC1823009F04DC0809120
:1020600020028111B1C1809122028F702FEF280FC1
:10207000263008F041C08093E9002091EB0020FF5A
:10208000A3C1933031F48091EB0080628093EB0028
:102090009BC19091EB0090619093EB0021E030E0C8
:1020A00001C0220F8A95EAF72093EA001092EA0015
:1020B0008091EB008860EACF81111EC01091200250
:1020C0001F778091E3008078812B8093E3008091DB
:1020D000E800877F8093E8000E9448058091E8002F
:1020E00080FFFCCF8091E30080688093E30082E072
:1020F000111183E0809326028091E80083FF0AC0DB
:102100008091E800877F8093E8008091EB008062F7
:102110008093EB00AA960FB6F894DEBF0FBECDBF3A
:10212000DF91CF911F9108958058823028F7209138
:102130002002309121022C3DE3E03E07A1F583E02F
:102140008A838AE289834FB7F894DE01139620E0F0
:102150003EE051E2E32FF0E050935700E49120FF7E
:1021600003C0E295EF703F5FEF708E2F90E0EA3092
:10217000C0F0C7968D939D932F5F243159F74FBFC1
:102180008091E800877F8093E8006AE270E0CE01EA
:1021900001960E94FA058091E8008B778093E80011
:1021A000ABCFC096E7CF8091220290912302432FBC
:1021B00055274330510509F44AC078F5413051059F
:1021C00009F485C08BE590E0EDEDF2E04230510579
:1021D00009F092CF2091E800277F2093E80020911A
:1021E0002402309125028217930708F49C0140E0F5
:1021F0002115310509F070C041116EC08091E800D1
:1022000082FDC9CF80912602882329F2853019F2F8
:102210008091E80083FFF2CFBECF4132510509F42F
:1022200047C04232510509F067CF8330910508F06D
:1022300063CFFC01EE0FFF1FED59FE4F0190F081BF
:10224000E02D805A9E4FDC018C9190E01DC0332719
:1022500021303105E9F02115310579F022303105C1
:10226000F9F02330310509F047CFEAE4F3E0E491D7
:102270008E2F90E0EAE4F3E007C0E0E7F3E0E491BA
:102280008E2F90E0E0E7F3E0009709F435CFA2CF7E
:10229000EAE5F3E0E4918E2F90E0EAE5F3E0F4CF95
:1022A000E0E5F3E0E4918E2F90E0E0E5F3E0ECCFA1
:1022B0008330910508F020CF880F991FFC01E75962
:1022C000FE4F0190F081E02D89E090E083CF82E124
:1022D00090E0E8E3F3E07ECF80912602882309F4C2
:1022E0005ACF853009F457CF8091E80083FD53CF52
:1022F0008091E80082FD82CF8091E80080FF78CF56
:102300009091F3008091F2002115310519F0883089
:10231000910550F041E0089709F040E08091E80015
:102320008E778093E80064CF44914093F10031961A
:10233000215031090196E8CF803809F0DDCE809137
:10234000E800877F8093E80080911D028093F10070
:102350007CCE8111D1CE10912002123008F0CCCE6B
:102360008091E800877F8093E80010931D020E940F
:102370004805112311F084E005C08091E30087FD3A
:10238000FACF81E08093260242E061EC81E00E9476
:10239000670542E261EC84E00E94670542E261EC7D
:1023A00082E00E94670542E260EC83E00E946705DC
:1023B000A3CE80912002813009F09ECE81E093303F
:1023C00009F080E080931C021092E9008091E800FF
:1023D000877F8093E8000E9448058ECE1F920F925F
:1023E0000FB60F9211242F933F934F935F936F93E8
:1023F0007F938F939F93AF93BF93CF93DF93EF938D
:10240000FF93D091E900DF708091EC00C82FC1707C
:1024100080FDC0E81092E9008091F000877F8093F2
:10242000F00078940E941C0F1092E9008091F00057
:1024300088608093F000CD2BCF70C093E900FF91AE
:10244000EF91DF91CF91BF91AF919F918F917F914C
:102450006F915F914F913F912F910F900FBE0F9011
:102460001F9018951F920F920FB60F9211242F9361
:102470003F934F935F936F937F938F939F93AF930C
:10248000BF93EF93FF938091E10082FF09C0809199
:10249000E20082FF05C08091E1008B7F8093E10024
:1024A0008091DA0080FF24C08091D80080FF20C096
:1024B0008091DA008E7F8093DA008091D90080FFCE
:1024C0009FC080E189BD82E189BD09B400FEFDCFD6
:1024D00081E08093260280911002811109C00E9440
:1024E000A6040E9499058091E20084608093E20036
:1024F0008091E10080FF17C08091E20080FF13C04F
:102500008091E2008E7F8093E2008091E200806102
:102510008093E2008091D80080628093D80019BC3B
:1025200085E0809326028091E10084FF2DC0809198
:10253000E20084FF29C080E189BD82E189BD89B5BF
:10254000982F917080FFFBCF8091D8008F7D809372
:10255000D8008091E1008F7E8093E1008091E200BD
:102560008F7E8093E2008091E20081608093E200A0
:1025700080911D02882309F449C084E080932602DB
:102580000E94110F0E9400098091E10083FF27C083
:102590008091E20083FF23C08091E100877F8093D8
:1025A000E10082E08093260210921D028091E100FA
:1025B0008E7F8093E1008091E2008E7F8093E20025
:1025C0008091E20080618093E20042E060E080E080
:1025D0000E9467058091F00088608093F000FF9171
:1025E000EF91BF91AF919F918F917F916F915F918B
:1025F0004F913F912F910F900FBE0F901F90189504
:1026000019BC109226021092100272CF8091E30042
:1026100087FD93E090932602B3CF882309F459C035
:10262000823871F40E94000981FF53C089E30E943F
:1026300045080E940B0889E30E9438080C940B0897
:10264000833859F40E94000980FF43C083E50E944B
:1026500045080E940B0883E5EFCF843859F40E94A7
:10266000000982FF36C087E40E9445080E940B08DB
:1026700087E4E2CF9CEF980F913AF0F290E2980F46
:10268000983088F4877021E030E0A90102C0440F3F
:10269000551F8A95E2F7CA0180959091C30189235D
:1026A0008093C301CBCF9BE5980F933020F490E04B
:1026B00080E00C94EA0898E5980F973120F490E0B8
:1026C00080E00C94D408803F20F00E9463060C94B4
:1026D000540E0895CF93C82F882309F490C08238F0
:1026E000C1F40E94000981FD8AC089E30E94450867
:1026F0000E940B082FEF81EE94E021508040904023
:10270000E1F700C0000089E30E943808CF910C94E3
:102710000B088338A1F40E94000980FD70C083E596
:102720000E9445080E940B082FEF81EE94E0215093
:1027300080409040E1F700C0000083E5E5CF843899
:10274000A1F40E94000982FD5AC087E40E94450856
:102750000E940B082FEF81EE94E0215080409040C2
:10276000E1F700C0000087E4CFCF8CEF8C0F813AF7
:1027700068F4E2E7F1E08191C817D9F121E0E83788
:10278000F207C9F78C2F0E944508C0CF80E28C0F5A
:10279000883068F4C77021E030E001C0220FCA958C
:1027A000EAF78091C301822B8093C301AFCFEBE5A1
:1027B000EC0FE33040F4F0E0EE5EFE4F808190E0FD
:1027C000CF910C94EA08E8E5EC0FE73150F4F0E023
:1027D000EE0FFF1FEB5EFE4F80819181CF910C9435
:1027E000D408C03F60F08C2F0E942407CF910C9436
:1027F000540E8C2F0E9438080E940B08C3CFCF9133
:102800000895CF93C82F0E946A13C93349F42FEF5C
:1028100087EE93E0215080409040E1F700C0000037
:102820008C2FCF910C940D130F931F93CF93DF93A5
:10283000C62FD42F022FFC0182818823A1F0609340
:1028400081010E94480E90937C0180937B01C770A8
:1028500081E001C0880FCA95EAF7DF91CF911F91FF
:102860000F910C94CA0810918101161335C0809104
:102870007B0190917C010E949D07883C910560F549
:10288000C0E2CD0F1D17B9F080E2810F883040F40F
:10289000177081E001C0880F1A95EAF70E94BF08FF
:1028A000C83048F481E09D2F977001C0880F9A9539
:1028B000EAF70E94CA08802F0E940114C83098F4D9
:1028C000D77081E001C0880FDA95EAF7DF91CF91E8
:1028D0001F910F910C94BF08C77081E001C0880F51
:1028E000CA95EAF7F3CFDF91CF911F910F91089529
:1028F0004F925F926F927F928F929F92AF92BF9210
:10290000CF92DF92EF92FF920F931F93CF93DF93BB
:1029100000D000D00F92CDB7DEB77C01FC018381DF
:102920009481892B31F08081918189238F3F09F037
:102930001FC50F900F900F900F900F90DF91CF91C8
:102940001F910F91FF90EF90DF90CF90BF90AF90CD
:102950009F908F907F906F905F904F9008950E940E
:10296000EF0C182F682F89819A810E94870869814E
:102970007A81812F0E94580B8C01F7018281882374
:1029800009F4EBC4980122513F452031310508F08C
:10299000BDC48FEF93E00E94F22402515EE4A52EA5
:1029A000B12C882371F18091C001877011F2F70179
:1029B0008281882309F4BDCF82E00F900F900F90A1
:1029C0000F900F90DF91CF911F910F91FF90EF909B
:1029D000DF90CF90BF90AF909F908F907F906F903F
:1029E0005F904F900C94CE0EA114F4E0BF06D9F284
:1029F000C5010E94F224811101C001502FEFA21ADB
:102A0000B20A0111F1CF1C821B82662463944AE052
:102A1000542E85010F5F1F4FC5010E94F224898348
:102A20001A82882309F4BFCF9FEF980F933008F5DF
:102A30008A83698232E0A30EB11CC8010E94F2248D
:102A40008B83882309F4AFCF8E010F5F1F4FF801EE
:102A500020812223F1F2213009F043C0918182814B
:102A6000913049F40E5F1F4F0E9401140F5F1F4FFA
:102A7000EECF5801E9CF923029F40E5F1F4F0E942C
:102A80006A13F4CF933029F40E5F1F4F0E940D1389
:102A9000EDCF943019F00F5F1F4FE8CF0E5F1F4F3F
:102AA00030E020E0B8016F5F7F4FF8014181805333
:102AB000990B8A30910550F021503109B8F28FE915
:102AC0009FE00197F1F700C00000F6CF529EF001A1
:102AD000539EF00D11249C012E0F3F1F842F8B015C
:102AE000E1CFE22FF0E0EB53FE4F7490822F8695FA
:102AF0008695869590E0FC01EB54FE4F84902770FC
:102B0000912C022E02C0959487940A94E2F7E1E09A
:102B10008E229924FC01EB55FE4FC490D12C02C0AB
:102B2000D594C7942A95E2F7F1E0CF22DD248114F1
:102B3000910419F081EE0E946A13C114D10419F0B6
:102B400086EE0E946A13872D0E940114CD2819F089
:102B500086EE0E940D13892809F488CF81EE96CF66
:102B600081E00E94E60E0E948F0E1DCF81E00E9440
:102B7000AB0EF9CF82E0F5CF053F2CE5120709F443
:102B800061C008F45BC027E245EE66EE063F9CE5B7
:102B9000190709F4DEC3882309F4FBC310928101ED
:102BA0000230ECE51E0708F430C10631FCE51F07D2
:102BB00038F098012A5F3C452930310508F025C1DD
:102BC0000E94250B9093D0018093CF0100312CE51A
:102BD000120709F4E9C008F073C008308CE5180743
:102BE00009F4D4C008F045C00430ECE51E0709F430
:102BF000C1C078F502302CE5120709F4B5C0809108
:102C0000CF01826003301C4509F4B1C06091CF014F
:102C10001091D00184E090E00E940025612F81E2B4
:102C200090E00E9400250E94110FBDCE27E245EEE4
:102C300065EE8FC326E241EE60EE8BC327E245EEE0
:102C400064EE87C326E241EE62EE83C328E241E0F0
:102C5000EFCF06308CE5180709F494C08091CF01BE
:102C6000886007301C4508F482C08091CF018062E3
:102C70007EC08091CF018D7F0C30ECE51E0709F4FA
:102C800076C070F48091CF018C600A302CE5120779
:102C900009F46DC008F47EC08091CF018E7F67C0BB
:102CA0000E308CE5180709F47BC08091CF018B7F33
:102CB0000F301C4508F45BC08091CF018F7E57C058
:102CC0000B3FECE51E0709F459C030F503312CE544
:102CD000120709F471C078F401318CE5180709F482
:102CE00067C002311C4509F091CF0E94110F8091FD
:102CF000CF018F773CC00531ECE51E0709F464C0B5
:102D000008F478C08091D00181600A3F1C4509F029
:102D10007DCF8093D0017ACF0F3F3CE5130709F4B4
:102D20004FC088F48091D0018D7F0D3F9CE519073D
:102D300081F38091D0018E7F0E3F1C4550F380912E
:102D4000D0018360E6CF0130FDE51F0709F45BC0C9
:102D500008F446C060E002301D4509F057CF8EE010
:102D600090E00E94002552CF8091CF018160809336
:102D7000CF014CCF8091CF018460F9CF8091D001F9
:102D80008260C7CF8091CF018061F1CF8091CF0168
:102D90008064EDCF0E94110F8091CF018068E7CF52
:102DA0008091CF01877FE3CF8091CF018F7DDFCFEF
:102DB0008091CF018F7BDBCF8091CF01837FD7CFF5
:102DC0008091D0018C7FA5CF8091CF0182FB992784
:102DD00090F921E0922790FB82F990FB83F9C7CF0D
:102DE0008091D001982F909591708E7F892B90FBC8
:102DF00081F98FCF0E94110F9091CF01892F97FBFE
:102E000087F98058B4CF61E0AACF06319CE5190755
:102E100009F0CAC28091C3018A7A91E009F490E076
:102E200090938201811106C089E20E9445080E94A8
:102E30000B08B9CD85E3F9CF85E3B3C20E94110F2A
:102E4000EFEFF4E32CE0E150F0402040E1F700C068
:102E500000000E948C070E94C10DA5CDC8010E94F0
:102E60005E08D82EB8C2212F2F70A22E107F19F025
:102E7000A29490EFA922DD20C9F0AA2069F080E297
:102E8000800F883010F081100BC08091C301A82AF8
:102E9000A092C3010E940B08802F0E946A1318C0E1
:102EA0008091C201A82AA092C201F4CF802F0E9473
:102EB0000D13AA2069F0A094005E083010F0811074
:102EC0003BC08091C301A822A092C3010E940B08BD
:102ED000EB2DE850FF0B349710F40E940009CC2032
:102EE00009F427CD8091C00180FD23CDF701128226
:102EF0008595859585950E94E60EC7010E947814F8
:102F00008091C0018595859585950F900F900F90C4
:102F10000F900F90DF91CF911F910F91FF90EF9045
:102F2000DF90CF90BF90AF909F908F907F906F90E9
:102F30005F904F900C94AB0E8091C201A822A0929A
:102F4000C201C4CF312F3F70932E107F103219F081
:102F5000929480EF9822882071F081E0881661F1C8
:102F6000DD20B9F1AA2071F1F701858180FF94CFAE
:102F70008F70858327C0DD2091F09091C401892D49
:102F8000892BA11003C00E94CA08A2CFE1E0AE12B3
:102F9000FACF981709F49CCF8093C40199CFA11060
:102FA00006C00E940508892D0E94BF0891CFF1E05C
:102FB000AF1609F48DCFF5CFDD2031F025E02A15CD
:102FC00008F486CF892DDFCF34E03A1508F480CF9E
:102FD000EACFAA2041F3F9E38F1291C12FEF37EE28
:102FE00083E0215030408040E1F700C0000087C1FD
:102FF000812F86958695837061F0813009F068CFC6
:10300000C8019370D11002C090E080E00E94D40803
:103010005FCFC8019370D11002C090E080E00E94A1
:10302000EA0856CF802FDD2029F00E9424070E9455
:10303000540E4ECF0E946306FACF812F837009F0A1
:1030400066C0D11045CF802F829586958770880FF6
:10305000880F602F6F70462E512C712C612C082E1A
:1030600004C0440C551C661C771C0A94D2F740E03F
:1030700050E0BA0104FF0FC04FE050E060E070E0A4
:1030800004C0440F551F661F771F8A95D2F74095DD
:10309000509560957095812F8695869583708230C6
:1030A00019F1D8F40091C5011091C6012091C70112
:1030B0003091C801813069F0442955296629772962
:1030C000CB01BA0160237123822393230E94070F4F
:1030D000FFCE402A512A622A732ACB01BA01642901
:1030E000752986299729F2CF4429552966297729F8
:1030F0000091C5011091C6012091C7013091C8010E
:10310000CB01BA016027712782279327DFCF8695ED
:10311000DD2011F0812F8170882309F4D9CE802F12
:10312000829586958770880F880F602F6F70462E66
:10313000512C712C612C082E04C0440C551C661CAB
:10314000771C0A94D2F740E050E0BA0104FF0FC0A8
:103150004FE050E060E070E004C0440F551F661F70
:10316000771F8A95D2F74095509560957095812F7D
:10317000869586958370823019F1D8F400912702E4
:10318000109128022091290230912A02813069F0A1
:103190004429552966297729CB01BA016023712377
:1031A000822393230E94850E93CE402A512A622ABD
:1031B000732ACB01BA016429752986299729F2CF90
:1031C0004429552966297729009127021091280260
:1031D0002091290230912A02CB01BA016027712780
:1031E00082279327DFCF1F70DD2029F0812F0E94D7
:1031F000E60E802FC8CE802F0E94BF08812F0E942C
:10320000AB0E66CE802F92EF891609F450C0981548
:1032100078F0E0EF8E1619F1F1EF8F1609F43FC048
:10322000DD2009F467C0A11037CE812F8F713CC01B
:1032300023EF821609F440C034EF8312F1CFDD2072
:1032400009F44DC01F71812F0E94E60EE8E01E9F19
:10325000C001112483608093C001812F25C0DD202F
:10326000C9F084E08A1508F433CE1F7161E070E084
:1032700080E090E004C0660F771F881F991F1A95A1
:10328000D2F7009127021091280220912902309153
:103290002A02A4CF95E09A1508F41ACEE6CF812F22
:1032A0008F71DD2009F4ABCF0E94E60E11CE812F85
:1032B0008F71DD20C9F3A3CF60E070E0CB01DD208A
:1032C00009F470CF1F7161E070E080E090E004C00D
:1032D000660F771F881F991F1A95D2F763CF81E079
:1032E0000E94CE0EF1E0FA1508F0F2CD82E00E94C5
:1032F000CE0EEECDAA2039F0893309F46FCE802F9F
:103300000E940D13E5CD812F8F7179CF0031FFE53C
:103310001F0709F425CC01312FE5120709F42ACC47
:10332000033F2CE5120709F485CC08F025CC083DB5
:103330009CE5190709F47ACC093DECE51E0709F470
:1033400085CC073DFCE51F0709F025CC26E241EEC0
:1033500061EEC7010E94141426CB00313FE513072C
:1033600009F404CC01319FE51907D1F682E0FFCBC7
:1033700085E0DE01119601900D928A95E1F7F70143
:10338000228189819A812111EACA0E945E08182F40
:10339000EECA06311C4589F48091820181114CCD21
:1033A00089E20E94380843CD01152CE5120709F483
:1033B00045CD0E3D1C4509F44ECDF701008111812C
:1033C000882309F44BCDC8010E94EF0CD82E682F3A
:1033D000C8010E948708B8018D2D0E94650B8C01E1
:1033E000882EF701A580A2943FE0A322D280D110BD
:1033F0001092C2018091C001877099F0DD2089F0A0
:10340000812F807F803421F080E2800F883048F067
:1034100082E00E94CE0E8091C0018770CC24C394BC
:103420008111C12CB12EB2942FE0B222FBE0FB152A
:1034300008F44ECDEB2DF0E0E25BFA4D0C94CF2476
:103440001F93CF93DF9380918801807FA9F48091AF
:103450008501882389F08091BA01D091890160911A
:10346000830170918401A0918601B0918701C62FDC
:10347000C72316E0D81304C0DF91CF911F910895A0
:1034800090E0109711F0CF3F19F401968770F2CFBA
:10349000189F9001199F300D1124F901E657FE4F36
:1034A00041814713F2CF40814613EFCF4281411152
:1034B000ECCF438154814A1B5B0B483C510528F7F4
:1034C000809188018F70806180938801F901E157B4
:1034D000FE4F80818F708061808383E891E00E943D
:1034E0007814DF91CF911F910C94B508AF92BF92E1
:1034F000CF92DF92EF92FF920F931F93CF93DF93C0
:10350000CDB7DEB761970FB6F894DEBF0FBECDBF63
:103510008C0185E0F801DE011D9601900D928A95DF
:10352000E1F7F80180819181E28023E8A22E21E079
:10353000B22E60918601709187016115710509F4C1
:103540003EC13091830140918401232F24232F3FDA
:1035500009F435C1C380D480F0908501F601E61BE3
:10356000F70BFF2009F4FBC020918801522F507FF8
:10357000E83CF10508F0BBC0511178C0FE2C49139E
:1035800021C038131FC0E1101DC02F70206120938F
:103590008801C5010E94781480918801F801858313
:1035A0008F2D61960FB6F894DEBF0FBECDBFDF91B1
:1035B000CF911F910F91FF90EF90DF90CF90BF9030
:1035C000AF900895CD2829F0282F29232F3F09F007
:1035D00014C120E0F22FF170DF2E20FF3DC02091BA
:1035E000BA014091890156E0241315C08D879E874A
:1035F0008D859E850E94310D292F22952F702230B6
:10360000F8F0243020F59F70F9F0F8019581907F53
:10361000D9F4D12C1FC030E0529FF001539FF00D20
:103620001124E657FE4F6181961306C06081861310
:1036300003C06281E61210C02F5F3F4F2770D4CFC6
:103640009F7011F0882329F3805E883010F3C80141
:103650000E947814FD2CA4CFEE2009F4A1CF809114
:103660008801816080938801F12C9ACF491312C0A0
:10367000381310C0E1100EC0F8012583C8010E9464
:10368000781486E0F801A3E8B1E001900D928A95E4
:10369000E1F786CF8D879E878D859E850E943B0DA5
:1036A000882309F1EE20F9F080918801803270F0D2
:1036B000209183013091840138872F831986DB861E
:1036C000CA868C87CE0107960E94781486E0F8019E
:1036D000A3E8B1E001900D928A95E1F70E94201ACB
:1036E000FF24F3945DCFC8010E947814F9CF5111E3
:1036F0000AC083E891E00E94781486E0F5011192F7
:103700008A95E9F7B1CF49130FC038130DC0E11006
:103710000BC0F8012583C8010E94781486E0F501EA
:1037200011928A95E9F73CCF8D879E878D859E857E
:103730000E943B0D8823B9F2EE20A9F28091880106
:10374000803220F220918301309184013A832983D1
:103750001B82DD82CC828E83CE010196B5CFE83C00
:10376000F105E0F6FE2CEE2009F4BDCF491316C09A
:10377000381314C08091880180FD83CF982F907FEB
:1037800009F47FCFF8018583903F09F477CF982F14
:10379000907F905F8F70892B858370CF8D879E87F8
:1037A0008D859E850E943B0D811190CF809188016F
:1037B000816080938801C8010E947814F1CEEE20C8
:1037C00009F491CF8D879E878D859E850E943B0D44
:1037D000F82E882309F487CF86E0F801A3E8B1E04A
:1037E00001900D928A95E1F7809183019091840177
:1037F0000E94310D0E94201AD3CE21E02E25EACE60
:103800001F93CF93DF93CDB7DEB767970FB6F894CA
:10381000DEBF0FBECDBF4B8B5C8B6D8B7E8B8F8BDA
:103820001A8A198A85E0FE017396DE011D960190C1
:103830000D928A95E1F786E0FE013D96DE0117962E
:1038400001900D928A95E1F7CE0107960E94761AB3
:10385000882389F016E08091BA019091890189133B
:1038600049C067960FB6F894DEBF0FBECDBFDF919B
:10387000CF911F91089586E0FE013796DE011196E3
:1038800001900D928A95E1F78A859B85892B11F32A
:103890008F81988589238F3FE9F22091890130E05B
:1038A000C9010196877099274091BA0148171906F6
:1038B00071F40E94110F109289011092BA0186E0F2
:1038C000E3E8F1E0DF011D928A95E9F7C3CF96E0C6
:1038D000929FD001939FB00D1124A657BE4FFE01B9
:1038E000319601900D929A95E1F7809389010E949B
:1038F000B508B0CF819FC001112486579E4F0E940A
:10390000761A882309F4ADCF8091BA0190E0019630
:10391000877099278093BA019ECFCF93A3E4B1E03B
:1039200050E040E030E061E070E02D912F3FA9F0E1
:10393000E22FE295EF70F0E080A190E02F7002C0DE
:10394000959587952A95E2F780FD16C0CB01042E48
:1039500001C0880F0A94EAF7382B4F5F5F4F45305C
:10396000510519F78091CE01831308C0C0917A01E7
:10397000CC23F1F0C0E00EC080E0EECF3093CE015A
:1039800081E080937A010E94480E909379018093A0
:103990007801C1E080917801909179010E949D07A2
:1039A000069730F08091CE0180930F0210927A0139
:1039B0008C2FCF910895CDB7DEB7E0970FB6F8946E
:1039C000DEBF0FBECDBF84B7877F84BF0FB6F8942C
:1039D000A8958091600088618093600010926000DB
:1039E0000FBE80E890E00FB6F8948093610090934A
:1039F00061000FBE85B7806885BF85B7806885BFC9
:103A00000E94A6040E9499058091E2008460809340
:103A1000E2007894809126028823A1F01091E900B9
:103A20001F709091EC00892F817090FD80E8182B19
:103A30001092E9008091E80083FD0E941C0F1F7026
:103A40001093E90082E084BD93E095BD9AEF97BDA5
:103A500080936E00A3E4B1E028E431E041E050E05F
:103A60008D918F3F91F0E82FE295EF70F0E011A17A
:103A70008F70BA0101C0660F8A95EAF7962F90956C
:103A8000912391A382A1862B82A32A173B0741F79A
:103A90001092CE0110920F020E948D1C8FE39CE9C0
:103AA0000197F1F700C000000E948D1C80910F0269
:103AB00080FF0BC080E00E94A90D6FEF7FEF90E0C8
:103AC00080E00E941E250E948C0790E080E00E940A
:103AD000FA248C3E9E4F11F00E94C10D82E290E0CC
:103AE0000E94F224803209F0F6C583E290E00E9441
:103AF000F224823109F0EFC584E290E00E94F224C2
:103B0000803109F0E8C582E08093F70180E8809376
:103B10002B020E94B2236DE070E088E592E00E94E3
:103B20002E0A892BE9F58091F70163E070E081FDB1
:103B30003CC185E592E00E942E0A892B89F56DE053
:103B400070E085E492E00E942E0A892B49F50E94DC
:103B5000AC076054784D864F9F4F6093F901709386
:103B6000FA018093FB019093FC01EEE2F2E080E029
:103B700092E0DF019C011D9221503040E1F7F0936B
:103B80003504E09334048FEF9FEF90932D028093E0
:103B90002C0281E08093FE018093FD011092F801D8
:103BA00090E080E00E94FA248C3E9E4F11F00E942B
:103BB000C10D82E090E00E94F22480930D020E94E9
:103BC000250B9093D0018093CF0183E090E00E9479
:103BD000F224682F70E090E080E00E94070F2198A7
:103BE000299A23982B9A83B1869581701B99E0C0FE
:103BF00090E0892B8093D60187E091E09093D201E9
:103C00008093D10173E0D72EFF24FA94E0E17E2E59
:103C1000FAE0CF2EEE24E39480912602853009F459
:103C2000C9C00E948D1CB82E80910F0290910E0287
:103C3000981709F40DC1292F282790E011E0322FA1
:103C4000312309F400C199A31AA2812391E009F458
:103C500090E09BA30E94480E8160782F9DA38CA3C7
:103C600049A15AA16BA18DA10E94001C80910E0256
:103C7000182710930E02E091D601EE0FEE0FE0939D
:103C8000D60183B1869581708BA71CA61B99F0C0C5
:103C900080E02BA53CA5822BE82BE093D601EF70AA
:103CA000F0E0E85BFE4F80819091D501890F809311
:103CB000D501843034F18091D4018F5F8093D40199
:103CC0008091270290912802A0912902B0912A02A6
:103CD0000097A105B10511F080FFCDC08AEA0E94CE
:103CE000011462E082E10E940C098BE692E00E94DE
:103CF000100A63E082E10E940C0989E692E00E94CA
:103D0000100A8091D5018D3F34F58091D401815006
:103D10008093D4018091270290912802A0912902DA
:103D2000B0912A020097A105B10511F080FFADC046
:103D300089EA0E94011463E082E10E940C098FE687
:103D400092E00E94100A62E082E10E940C098DE676
:103D500092E00E94100A8091D501837887FF03C00A
:103D600081508C6F8F5F8093D5018091FE018823F5
:103D700009F49AC160E080E00E940C0986ED92E0AF
:103D80000E94100A609127027091280280912902F6
:103D900090912A020E94B807882309F480C08130DC
:103DA00009F49BC087EC92E07CC082E592E0C3CE30
:103DB00092E01FCF80912602843021F11092D3012E
:103DC00080E4A8E1B0E00FB6F894A895A093600055
:103DD0000FBE8093600083B7817F846083BF83B709
:103DE000816083BF7894889583B78E7F83BF0FB639
:103DF000F894A8958091600088618093600010928B
:103E000060000FBE80911C02882309F405CF0E9438
:103E10008D1C80910F02882309F4FECE79BC82E1CB
:103E200089BD09B400FEFDCF8091D8008F7D8093BD
:103E3000D8008091E00082608093E0008091E000F3
:103E400081FDFCCFE9CE9F5F110F953009F0F7CED1
:103E5000FEA2FFA218A60E94480E8160782F9AA7A2
:103E600089A74EA15FA168A58AA50E94001C03CF67
:103E700082E090E00ECF8EEB0E94011462E082E1BE
:103E80000E940C0985E692E032CF8DEB0E9401146E
:103E900063E082E10E940C0987E692E052CF81ED57
:103EA00092E00E94100A81EC92E00E94100A8CEBD2
:103EB00092E00E94100A609127027091280280917E
:103EC000290290912A020E94B807882349F0813084
:103ED00009F406C28DEA92E005C08CEC92E0E1CFD5
:103EE00087EB92E00E94100A6091270270912802ED
:103EF0008091290290912A020E94B807813009F42A
:103F0000F2C10E941E0A62E083E00E940C0984E76D
:103F100092E00E94100A63E083E00E940C0981E7AE
:103F200092E00E94100A62E086E00E940C098AE793
:103F300092E00E94100A63E086E00E940C0987E785
:103F400092E00E94100A62E089E00E940C0980E879
:103F500092E00E94100A63E089E00E940C098DE75C
:103F600092E00E94100A62E08CE00E940C0986E850
:103F700092E00E94100A63E08CE00E940C0983E842
:103F800092E00E94100A62E08FE00E940C098CE827
:103F900092E00E94100A63E08FE00E940C0989E819
:103FA00092E00E94100A20912C0230912D022115DE
:103FB000310509F45BC08091F801811157C0082FC9
:103FC00010E044244394512C082E02C0440C551C8C
:103FD0000A94E2F7A20142235323452B09F4D4C1EA
:103FE0009091F70190FDD2C18295880F80768093E1
:103FF000020198013695279536952795209305015E
:10400000815E809303011092060124E630E047E0D0
:1040100050E060E071E088E70E944324892B31F58D
:10402000B80145E0660F771F4A95E1F78091F701E7
:1040300080FDB9C1AB01425D5D4F04E610E020E2B6
:1040400030E060E488E70E946A24892B79F40E94BA
:104050005E0AC2018095909540902C0250902D02EE
:104060004822592250922D0240922C028091FD014B
:104070008823D1F00E94AC070091F9011091FA0158
:104080002091FB013091FC01601B710B820B930BA3
:1040900097FD0AC062E070E08BED92E00E942E0A6C
:1040A000892B11F41092FD01B1100E945E0A86E086
:1040B000E6E0F2E0DE01119601900D928A95E1F7BB
:1040C0008091080290910902892B09F468C08091BF
:1040D0000402909105020E949D079C0190910302A9
:1040E000992309F413C32333310508F458C09F3FC3
:1040F00019F09F5F9093030210920A0210920B0234
:1041000080910802181624F40E9404078093080284
:104110008091080287FF05C00E9404078195809363
:10412000080280910902181624F40E940407809363
:1041300009028091090287FF05C00E94040781954A
:1041400080930902309108023323B1F020910902D3
:10415000222391F045EB3403C0011124992309F483
:1041600087C19093080245EB240390011124332367
:1041700009F481C1309309020E94540E809101021A
:1041800090910202909305028093040286E0FE0162
:104190003196A6E0B2E001900D928A95E1F7809108
:1041A0000A0290910B02892B09F468C08091FF01EB
:1041B000909100020E949D079C0190910302992317
:1041C00009F49FC22536310508F458C09F3F19F005
:1041D0009F5F90930302109208021092090280914F
:1041E0000A02181624F40E94E20680930A028091C3
:1041F0000A0287FF05C00E94E206819580930A02A9
:1042000080910B02181624F40E94E20680930B02A0
:1042100080910B0287FF05C00E94E2068195809382
:104220000B0230910A023323B1F020910B022223BA
:1042300091F045EB3403C0011124992309F41EC108
:1042400090930A0245EB240390011124332309F4CF
:1042500018C130930B020E94540E8091010290917C
:104260000202909300028093FF0186E0FE013196E6
:10427000A6E0B2E001900D928A95E1F70E94000954
:1042800090910C02891721F00E94000980930C0282
:1042900080912602843009F0BFCCD092E900809151
:1042A000E80082FFB9CC8091E80090E085FF06C06D
:1042B0000E94C504882309F4E7C091E08091E800DA
:1042C0008B778093E800992309F4A6CCE981E1502B
:1042D000E33108F020C1F0E0E65AFA4D0C94CF2407
:1042E00082EB92E0FFCD0E941E0A62E083E00E9412
:1042F0000C0982E992E00E94100A63E083E00E94C8
:104300000C098FE892E00E94100A62E086E00E94A9
:104310000C0988E992E00E94100A63E086E00E949E
:104320000C0985E992E00E94100A62E089E00E948F
:104330000C098EE992E00E94100A63E089E00E9475
:104340000C098BE992E00E94100A62E08CE00E9466
:104350000C0984EA92E00E94100A63E08CE00E945B
:104360000C0981EA92E00E94100A62E08FE00E944C
:104370000C098AEA92E00E94100A63E08FE00E9432
:104380000C0987EA92E00DCE8F5F19CE880F880F57
:10439000880F8093020110920501895F80930301C9
:1043A000D092060132CE80E2A7EDB1E01D928A954F
:1043B000E9F7ECE5F1E0F8ABEFA748E551E037E0CD
:1043C000932EEFA5F8A9A191F8ABEFA7FA0181917F
:1043D000AF01860F972F911D9C01225D3D4F3EA797
:1043E0002DA7EA2FF0E0E952FE4F90E080E0692C23
:1043F000681AAA24A394082E01C0AA0C0A94EAF70A
:104400002DA43EA400E0D1011D911D011A21262DED
:10441000201B2770822E022E000C330BB12F01C0FF
:10442000BB0F8A94EAF78B2E3195219531092770BD
:10443000332701C016952A95EAF7812A1081812A2F
:1044400080820F5F0830F9F6019631968830910529
:1044500071F6E0E6F1E02FA538A9E217F30709F0BD
:10446000B0CF04E610E020E230E047ED51E0E9CDC6
:10447000E092080278CEE09209027ECEE0920A0233
:10448000E1CEE0920B02E7CE00E210E0CE01019611
:104490005C018091E80085FD0AC08091E8008B777F
:1044A0008093E8000E94C504882399F306CF809189
:1044B000F100D5018D935D010150110951F7FDCE39
:1044C0001A82B9E0BB83CE0101960E942005A4CBDD
:1044D0008A81823009F40CC1833059F08130D9F4DB
:1044E0000E94AC070E94D5246B837C838D839E83BE
:1044F000EACF80910F028B83E6CF8A81823059F414
:104500006B817C818D819E810E94D52485E290E023
:104510000E940025D8CFF982D6CF4C816B818A8149
:104520000E94330B9827892798279E838D83CBCFB2
:10453000AD80BE80BA24AB24BA248A810B810C9D45
:10454000800111248C9D000D111D11248C8190E09F
:10455000880F991F080F191F6B2DC80186960E949E
:1045600000256A2DC8018796D3CF0E945F0DABCF7F
:104570007A82A9CFDA82E2EBEB83A5CF0A811B8195
:104580001027012710279E012F5F3F4F4901AC8064
:10459000C9018A0D911D5C01C801825B9F4F8A147D
:1045A0009B0409F490CF023BA3E01A0750F40E9449
:1045B000F224F40184830F5F1F4FBFEF8B1A9B0A15
:1045C000EBCFD40114961C92F6CF0A811B811027E1
:1045D00001271027FE0131964F01AC80A00EB12EAD
:1045E000B11CC801825B9F4FA016B10609F46BCFC6
:1045F000023BF3E01F0728F4D40114966C910E944B
:104600000025BFEF8B1A9B0A0F5F1F4FEACF0E9456
:10461000990D59CFE4E0EA8356CF0A811B81102718
:10462000012710279E012F5F3F4F4901AC80C90130
:104630008A0D911D5C01C80186968A149B0409F4B9
:1046400042CF0832110558F40E94F224D401149686
:104650008C930F5F1F4FFFEF8F1A9F0AECCFF4016F
:104660001482F7CF0A811B811027012710279E0192
:104670002F5F3F4F4901AC80A00EB12EB11CC80185
:1046800086960A151B0509F41ECF0832110528F479
:10469000D40114966C910E940025BFEF8B1A9B0ADF
:1046A0000F5F1F4FECCF80E00E94A90D6FEF7FEFEF
:1046B00090E080E00E941E2506CFCE0101960E9468
:1046C0002005EFEFF1EE24E0E150F0402040E1F76B
:1046D00000C00000F8C960E085E290E00E9400257B
:1046E0000E945F0D0E94990D81E00E94A90D0BCAE6
:1046F00085E290E00E94F2241B821C821D828E8340
:10470000E2CE2D32314008F063CDB8CD2D323140AC
:1047100008F0EFCC44CD1F921FB61F9211248F9347
:104720009F93AF93BF938091D301811113C0809168
:10473000C9019091CA01A091CB01B091CC014196E1
:10474000A11DB11D8093C9019093CA01A093CB0113
:10475000B093CC01BF91AF919F918F911F901FBEDD
:104760001F9018951092B9008CE08093B8000895BE
:10477000EF92FF920F931F93CF93DF93182FEB01CC
:104780001092BC0084EA8093BC000E94480E7C0119
:104790008091BC0087FF27C08091B900887F883056
:1047A00029F08091B900887F8031D9F51093BB0042
:1047B00084E88093BC000E94480E8C018091BC006C
:1047C00087FF24C02091B900287F90E080E0283145
:1047D000B1F081E090E0203411F490E080E0919518
:1047E000819591090CC0CF3FDC0791F20E94480EE1
:1047F0008E199F098C179D0758F28EEF9FEFDF915E
:10480000CF911F910F91FF90EF900895CF3FDC075C
:10481000A9F20E94480E801B910B8C179D0770F225
:10482000ECCF8FEF9FEFEBCF0F931F93CF93DF93DF
:10483000EB018093BB0084E88093BC000E94480E8B
:104840008C018091BC0087FF11C02091B900287FA6
:1048500081E090E0283211F490E080E0919581951C
:104860009109DF91CF911F910F910895CF3FDC0700
:1048700041F30E94480E801B910B8C179D0708F393
:104880008EEF9FEFEECFCF92DF92EF92FF920F93DA
:104890001F93CF93DF936B018A017901B9010E94C5
:1048A000B823E6010C0D1D1DC017D10761F424E9E2
:1048B0002093BC00DF91CF911F910F91FF90EF905B
:1048C000DF90CF90089597FDF2CFB70189910E94B4
:1048D0001424EACFCF92DF92EF92FF920F931F93AF
:1048E000CF93DF93C62F6A017901B8010E94B823E4
:1048F00097FD0CC0B8018C2F0E941424E601EC0C2B
:10490000FD1CCE15DF0511F097FF0CC024E92093A4
:10491000BC00DF91CF911F910F91FF90EF90DF903E
:10492000CF900895B80189910E941424EACF84E9B8
:104930008093BC000895991B79E004C0991F9617D5
:1049400008F0961B881F7A95C9F780950895AA1BD1
:10495000BB1B51E107C0AA1FBB1FA617B70710F06A
:10496000A61BB70B881F991F5A95A9F7809590959C
:10497000BC01CD01089597FB072E16F4009407D0D3
:1049800077FD09D00E94A72407FC05D03EF490953E
:1049900081959F4F0895709561957F4F0895EE0F13
:1049A000FF1F0590F491E02D099469279627692748
:1049B0007827872778270895FB01DC0102C005903E
:1049C0000D9241505040D8F70895FB01DC0104C01E
:1049D0008D910190801921F441505040C8F7881BF7
:1049E000990B0895F999FECF92BD81BDF89A992748
:1049F00080B50895A8E1B0E042E050E00C9426258F
:104A0000262FF999FECF92BD81BDF89A019700B487
:104A1000021639F01FBA20BD0FB6F894FA9AF99A27
:104A20000FBE08950396272F0E9401250E9400259E
:104A3000252F0E940125242F0C9401250196272F54
:104A40000E9401250C940025DC01CB01FC01F999A1
:104A5000FECF06C0F2BDE1BDF89A319600B40D92CA
:104A600041505040B8F70895F894FFCF4A0D4A0DD1
:104A7000530D530D550D530D530D530D4A0D4A0D46
:104A80005A0D530D530D5A0D011029107C10291089
:104A90007C105C1094107C109C11A91133173317F3
:104AA000A217A217F8171218681768171D18F3181D
:104AB00002190219602268227D228D229822B522D5
:104AC0008B228B228B2253235D23B822BA22BE2253
:0A4AD000E52207230A230D233223F9
:104ADA000021007F2200036006F20AC70AC30AB156
:104AEA000A01818283E200E900EA00B500B600B754
:104AFA0000CD008301CC008A019201940121022396
:104B0A000224022502260227022A02B300B4006FF9
:104B1A000070006697C634F600FF0100010000FF2E
:104B2A00FF0000010001FF0000081018181008001B
:104B3A004022814F012D01AC00EF02080328030037
:00000001FF
