:100000000C94EC030C9433040C9433040C943304DC
:100010000C9433040C9433040C9433040C94330484
:100020000C9433040C9433040C9400240C94D424C6
:100030000C94721C0C9433040C9433040C9433040D
:100040000C9433040C9433040C9433040C94330454
:100050000C9433040C94C91C0C9433040C94330496
:100060000C9433040C9433040C9433040C94330434
:100070000C9433040C9433040C9433040C94330424
:100080000C9433040C9433040C9433040C94330414
:100090000C9433040C9433040C9433040C94330404
:1000A0000C9433040C9433040C943304554E44469E
:1000B000004252475400564F4C20008485868700EA
:1000C000202020202000554E444600324E4420007F
:1000D00031535420008081828300D9DA00B9BA00FC
:1000E000C6C700A6A700C4C500A4A500C2C300A23D
:1000F000A300C0C100A0A100B2B300929300B0B1B0
:1001000000909100AEAF008E8F00ACAD008C8D00E2
:10011000AAAB008A8B00A8A90088890020002000D3
:100120001F0020001E002000A800AE00AC00AB00A5
:1001300011500100AD00BC00BB00105000AE00AF7C
:1001400000DA02818FD9F1DB40A4A62EAF00A0C057
:1001500000A1C800AED580A81FD300408D14200098
:100160000000000000003E5B4F5B3E003E6B4F6BAB
:100170003E001C3E7C3E1C00183C7E3C18001C5778
:100180007D571C001C5E7F5E1C0000183C180000A0
:10019000FFE7C3E7FF00001824180000FFE7DBE7D4
:1001A000FF0030483A060E00262979292600407FB4
:1001B00005050700407F05253F005A3C663C5A0074
:1001C0007F3E1C1C0800081C1C3E7F0014227F225E
:1001D00014005F5F005F5F0006097F017F0000661B
:1001E00089956A0060606060600094A2FFA294003C
:1001F00008047E04080010207E20100008082A1C35
:100200000800081C2A0808001E10101010000C1E00
:100210000C1E0C0030383E383000060E3E0E060034
:1002200000000000000000005E0000000006000664
:100230000000143E143E1400242A7F2A12002616C1
:1002400008343200364A56205000000A06000000EA
:10025000003C420000000000423C00002A1C3E1C02
:100260002A0008083E08080000A0600000000808F6
:100270000808080000006060000020100804020068
:100280003C4242423C0000447E40000064525252D4
:100290004C0022424A4A36003824227E20002E4A50
:1002A0004A4A32003C4A4A4A32000202621A0600B6
:1002B000344A4A4A34004C5252523C000000140066
:1002C0000000004034000000000814220000141454
:1002D000141414000000221408000004520A040040
:1002E0003E415D594E007C1212127C007E4A4A4A01
:1002F00034003C42424242007E4242423C007E4A3E
:100300004A4A4A007E0A0A0A0A003C4242527200E5
:100310007E0808087E0000007E0000002040423E6B
:1003200000007E10081462007E40404040007E04C1
:1003300008047E007E0408107E003C4242423C00DD
:100340007E1212120C003C4252225C007C121232CD
:100350005E004C4A4A4A320002027E0202003E40DF
:1003600040403E001E2040201E003E4038403E00DF
:1003700062140814620006087008060062524A46B9
:100380004200007E424200000204081020000000EB
:1003900042427E0008040204080040404040400001
:1003A0000000060A0000605454547C007E4848480F
:1003B0003000304848484800304848487E003854AB
:1003C0005454580000087C0A000098A4A4A47800A3
:1003D0007E080808700000007A0000002040403AC3
:1003E00000007E102844000000007E4000007C04D5
:1003F000780478007C0404047800384444443800CD
:10040000FC242424180018242424FC007C08040460
:10041000080048545454240000047E4400003C402A
:1004200040407C001C2040201C003C4030403C00F0
:100430004428102844005CA0A0A07C004464544CD4
:100440004400FEC1C1C9C5DDC5C9C1C1FE00FCFE75
:10045000FEEEF6C6F6EEFEFEFC003C2623263C0031
:100460007EFF81BFBFBFBFF9F78FF7F9FF83EDEDC7
:10047000CDA3FF7E000000007EFF81B5B5B5B5FFBE
:1004800081FBF7EF81FFC3BDBDBDBDFF7E00000056
:10049000FE01F1F10905FD91619101FEFE01FDF9F9
:1004A000F16101FD01FD01FEFE0161F1F9FD61F166
:1004B000F9FD01FEFE01FDF9F161FDF9F16101FEB9
:1004C000FE0101FD0161F1F9FD0101FEFE0101FDE9
:1004D000F9F16101FD0101FE000000000000F008DB
:1004E00004C4242424C40408F000F0F8FC3CDCDC40
:1004F000DC3CFCF8F000FEC1C1C9C5DDC5C9C1C105
:10050000FE00FCFEFEEEF6C6F6EEFEFEFC0000006F
:1005100000000000000000000000000000000000DB
:10052000FE0101F9F9F9F9F9F90101FEFE01E1E134
:100530001109F90109F101FEFE01012131F9F93139
:10054000210101FEFE010141C1F9F9C1410101FE94
:1005500007080808090A0B080808080707080B0914
:100560000808080B080B080707080808090B080803
:10057000090B080707080B0908080B0908080807F2
:100580000708080B080808090B0808070708080BE4
:10059000090808080B080807000000000000070809
:1005A00010131111111310080700070F1F1C1E1E36
:1005B0001E1C1F0F0700FE01F1F9FDFD050509F1E5
:1005C00001FE00000000000000000000000000002C
:1005D000000000000000000000000000000000001B
:1005E0000708080909090909090808070708080888
:1005F000090A0B0809080807070808080809090874
:10060000080808070708080808090908080808076B
:1006100000000004063F3F06040000000000000840
:10062000183F3F18080000001C1C22417F001018D2
:100630001C1810001C1C22417F00040C1C0C040020
:100640001C3E3E221C0010181C1810001C3E3E22AE
:100650001C00040C1C0C0400000000000000000042
:10066000000000000000000000000000000000008A
:10067000000000000000070808090B0B0A0A09081F
:10068000080700000000000000000000000000005B
:10069000000000000000000000000000000000005A
:1006A00004033000000008035000690078000000D7
:1006B0001403730065006E00640079007900650022
:1006C0006100680000000403090409023B00020104
:1006D00000A0FA0904000001030101000921110131
:1006E00000012240000705810308000A09040100F7
:1006F000010300000009211101000122810007050A
:10070000820320000A12011001000000085953342E
:100710004E01000102030105010902A10185020940
:1007200001A1000509190129051500250195057587
:100730000181029501750381010501093009311517
:1007400081257F95027508810609381581257F95D9
:100750000175088106050C0A38021581257F95016F
:1007600075088106C0C005010980A1018503190132
:100770002AB700150126B700950175108100C00544
:100780000C0901A101850419012AA002150126A066
:1007900002950175108100C005010906A101050738
:1007A00019E029E7150025019508750181029501D9
:1007B000750881010507190029FF150026FF00951E
:1007C000067508810005081901290595057501912F
:1007D00002950175039101C011241FBECFEFDAE02D
:1007E000DEBFCDBF04B603FE27C0809164049091A4
:1007F0006504A0916604B09167048730904BA740D0
:10080000B04BD1F410926404109265041092660407
:100810001092670414BE84B7877F84BF0FB6F89424
:10082000A8958091600088618093600010926000BC
:100830000FBEE0E0F8E3099511E0A0E0B1E0E4E8E4
:10084000FEE402C005900D92AC39B107D9F724E05F
:10085000ACE9B1E001C01D92A436B207E1F70E94F5
:1008600031210C9418270C94000060E070E0CB015B
:100870000E94611B0C946D1BCF93C62F811148C041
:100880000E948F18882361F1CC23B1F089EA0E947D
:10089000061263E082E10E94C40A60E086E291E011
:1008A0000E94A70B62E082E10E94C40A60E084E239
:1008B00091E0CF910C94A70B8AEA0E94061262E0A5
:1008C00082E10E94C40A60E082E291E00E94A70BEC
:1008D00063E082E10E94C40A60E080E291E0E9CF37
:1008E000CC2359F08DEB0E94061263E082E10E9456
:1008F000C40A60E08EE191E0D3CF8EEB0E94061235
:1009000062E082E10E94C40A60E08CE191E0DECF07
:10091000CF91089582E008951F93CF93DF93162F10
:100920000197EC01CC0FDD1FC80FD91F8C2F0E943F
:10093000C40A60E089E191E00E94A70B61E0610FC9
:100940008C2F0E94C40A60E086E191E0DF91CF9194
:100950001F910C94A70B1F93CF93DF93162F019732
:10096000EC01CC0FDD1FC80FD91F8C2F0E94C40AC9
:1009700060E083E191E00E94A70B61E0610F8C2FA2
:100980000E94C40A60E080E191E0DF91CF911F9165
:100990000C94A70B1F93CF93DF93162F0197EC01B5
:1009A000CC0FDD1FC80FD91F8C2F0E94C40A60E036
:1009B0008DE091E00E94A70B61E0610F8C2F0E94F7
:1009C000C40A60E08AE091E0DF91CF911F910C941E
:1009D000A70B1F93CF93DF93162F0197EC01CC0F3A
:1009E000DD1FC80FD91F8C2F0E94C40A60E087E06A
:1009F00091E00E94A70B61E0610F8C2F0E94C40A56
:100A000060E084E091E0DF91CF911F910C94A70BFF
:100A10001F93CF93DF93162F0197EC01CC0FDD1FAF
:100A2000C80FD91F8C2F0E94C40A60E081E091E0BA
:100A30000E94A70B61E0610F8C2F0E94C40A60E046
:100A40008EEF90E0DF91CF911F910C94A70B1F9335
:100A5000CF93DF93162F0197EC01CC0FDD1FC80F4A
:100A6000D91F8C2F0E94C40A60E08BEF90E00E9497
:100A7000A70B61E0610F8C2F0E94C40A60E088EF31
:100A800090E0DF91CF911F910C94A70B1F93CF9310
:100A9000DF93162F0197EC01CC0FDD1FC80FD91F74
:100AA0008C2F0E94C40A60E085EF90E00E94A70BA3
:100AB00061E0610F8C2F0E94C40A60E082EF90E039
:100AC000DF91CF911F910C94A70B1F93CF93DF93CE
:100AD000162F0197EC01CC0FDD1FC80FD91F8C2FEB
:100AE0000E94C40A60E08FEE90E00E94A70B61E0D4
:100AF000610F8C2F0E94C40A60E08CEE90E0DF91C1
:100B0000CF911F910C94A70B1F93CF93DF93162FB8
:100B10000197EC01CC0FDD1FC80FD91F8C2F0E944D
:100B2000C40A60E089EE90E00E94A70B61E0610FCB
:100B30008C2F0E94C40A60E086EE90E0DF91CF9196
:100B40001F910C94A70B1F93CF93DF93162F019740
:100B5000EC01CC0FDD1FC80FD91F8C2F0E94C40AD7
:100B600060E083EE90E00E94A70B61E0610F8C2FA4
:100B70000E94C40A60E080EE90E0DF91CF911F9167
:100B80000C94A70B1F93CF93DF93162F0197EC01C3
:100B9000CC0FDD1FC80FD91F8C2F0E94C40A60E044
:100BA0008DED90E00E94A70B61E0610F8C2F0E94F9
:100BB000C40A60E08AED90E0DF91CF911F910C9420
:100BC000A70B60E085ED90E00E94A70B60911902F1
:100BD00070911A0280911B0290911C020E94E61AE9
:100BE000882331F0813029F160E086EC90E003C089
:100BF00060E080ED90E00E94A70B60E080EC90E068
:100C00000E94A70B60E08BEB90E00E94A70B609125
:100C1000190270911A0280911B0290911C020E948D
:100C2000E61A882351F08130E9F160E08CEA90E027
:100C300007C060E08BEC90E0DECF60E086EB90E0F8
:100C40000E94A70B6091190270911A0280911B02F9
:100C500090911C020E94E61A62E070E0813031F14E
:100C600081E090E00E948C0462E070E082E090E01D
:100C70000E94AB0462E070E083E090E00E9408050F
:100C800062E070E084E090E00E94270562E070E09E
:100C900085E090E00E94840562E070E086E090E0EC
:100CA0000C94650560E081EB90E0CACF81E090E0B4
:100CB0000E948C0462E070E082E090E00E944605B1
:100CC00062E070E083E090E00E94CA0462E070E0BD
:100CD00084E090E00E94E90462E070E085E090E04A
:100CE0000E94A30562E070E086E090E00C94C205EB
:100CF00081E0089581E008950C947A0608950C949B
:100D00007E061F93CF93DF9300D000D00F92CDB714
:100D1000DEB749835A836B833091DB0189819A81E5
:100D200031111DC06623B9F02223A9F00E94A21937
:100D3000182F682F89819A810E944B1969817A81C5
:100D4000812F0F900F900F900F900F90DF91CF9108
:100D50001F910C9431070E947919182FEFCF0E9430
:100D6000A21969817A81EDCFFC01262F4081518142
:100D70006281738184810C948106CF93DF93EC01AF
:100D800060E00E94B406BE01DF91CF910C947F0613
:100D90000E94331B811102C00E94C91B0C943F09A1
:100DA0000C94420908950C94D20681E008950C94A5
:100DB000D506CF93C82F0E94D3068C2FCF910C94C9
:100DC000D70608950E9495140E94E1062FEF84E350
:100DD0009CE0215080409040E1F700C000000C945E
:100DE000ED1C0F931F93CF93DF93EC0161E00E9402
:100DF000B4068C01BE010E947C06882329F1BE0145
:100E0000C8010E94790D8823F9F0BE01C8010E9433
:100E1000BA0D8823C9F0BE01C8010E94DD0E8823E7
:100E200099F08A81882339F001158CE5180751F073
:100E30000E3D1C4579F0CE01DF91CF911F910F91AE
:100E40000C9478060E94E20680E0DF91CF911F911A
:100E50000F9108950E94C91BF7CF90E080E008959C
:100E60000895E62F272F280F3327331FC90125E0C8
:100E7000289FB001299F700D1124E60FF72FF11D57
:100E8000EE0FFF1FE85DFE4F859194910895FC01E0
:100E9000EE0FFF1FE45CFE4F859194910895CF9370
:100EA000DF930E9431070E946408EC01811520E560
:100EB000920708F042C0811530E4930708F0BDC0E6
:100EC000883E910528F5803E910508F09DC0883A3E
:100ED000910588F4853A910508F08FC0813091051D
:100EE00009F492C0009709F48FC0049708F08CC0F1
:100EF000D0E0C0E089C08F3B910508F489C0805CD8
:100F00009109C03CD105A0F30E944707EC017CC0C9
:100F10008115904250F4C11581E0D80708F074C0E3
:100F2000C03FD10528F3D0656FC0C11590E3D90744
:100F300008F079C0CE019F70E7CF811525E59207B3
:100F400058F5811534E5930708F0A6C0811542E5F0
:100F5000940750F4C11581E5D80708F471C0DC2F5F
:100F6000CC27C16FD06A50C0982F969596959E0158
:100F700023703327C115D34508F07FC0C1E0D0E00E
:100F800002C0CC0FDD1F2A95E2F720E2929FC0013C
:100F90001124C82BD92B6FC0C11589E5D807A8F437
:100FA000C11598E5D90708F07CC0C11526E5D20720
:100FB00008F09ECF8C2F0E94FB08C82FD0E0DC2FBA
:100FC000CC27CC27DF71D0621FC0C1153AE5D3070B
:100FD00008F46CC0CE0190568115904208F088CF7D
:100FE0008D2F8F710E94FB0890E0982F882788270B
:100FF0009F719C012C2BE901E6CFC55AD0E0C65B5E
:10100000DE4FC881D0E0D064CE01DF91CF9108954A
:10101000C85AD0E0CC0FDD1FC45EDE4F0990D881E6
:10102000C02DD464F1CFCE019927D3FF03C0EC01CA
:10103000D86CEACFEC01D06CE7CFDF70D06AE4CF98
:10104000CE01E4E096958795EA95E1F783702C2F21
:1010500026952695237090E2299F90011124382B24
:101060008C2F8370C1E0D0E002C0CC0FDD1F8A95C9
:10107000E2F7C22BD32BDC68C7CFC1E0D0E002C0BF
:10108000CC0FDD1F2A95E2F730E2939FC0011124B7
:10109000C82BD92BDA68B8CFD82FCC27C46FD06A29
:1010A000B3CFDC2FCC27C06FD06AAECF8C2F8F7020
:1010B0000E94FB0834E0D695C7953A95E1F7CF70CA
:1010C0009C2FEC01D069A0CF82389105B1F1B0F42A
:1010D0008133910509F475C048F48932910509F40A
:1010E00069C08A32910509F473C00895853391056A
:1010F00009F459C08933910501F10895833E9105A2
:10110000A9F138F4803E9105F9F0823E910549F14C
:101110000895863E9105A9F1873E9105C9F1843E67
:10112000910519F52091560421FF1FC080915504A7
:1011300084FD14C087EE90E008952091550423703B
:10114000A1F080EE90E008952091550420FD47C065
:101150003091560430FF09C024FF44C090E080E085
:1011600004C02091550422FDF7CF08952091550425
:1011700022FD3BC03091560430FDE3CF24FFF5CF74
:10118000EDCF2091550423FFF0CF24FDE7CFD2CF40
:101190002091550423FD2CC03091560431FFEECF31
:1011A00084EE90E008952091550425FFDECF89E27A
:1011B00090E008952091550425FFD7CF85E390E076
:1011C00008952091550426FFD0CF8AE290E008953B
:1011D0002091550426FFC9CF81E390E0089589E36B
:1011E00090E0089583EE90E0089582EE90E00895F7
:1011F00086EE90E008959091550492FF06C0282F46
:1012000028712830F9F4877F846093FF06C0282F67
:1012100028712831F1F4877E84612091560420FFE3
:1012200006C0382F38713830D9F4877F816021FFAC
:1012300006C0282F28712831D1F4877E816194FD62
:10124000877E0895282F24712430F9F68B7F8860DB
:10125000DCCF282F2471243101F78B7E8861DDCF0C
:10126000382F3171313019F78E7F8860E0CF282F09
:101270002171213121F78E7E8861E1CF08950C9490
:101280003E0908950C944109E82FF0E0E65BFD4F1C
:10129000808108950895ADE4B1E041E050E08D9182
:1012A0008F3F91F0E82FE295EF70F0E061A18F7031
:1012B0009A0101C0220F8A95EAF7922F9095962302
:1012C00091A382A1822B82A381E0A235B80739F7CE
:1012D0001092490210924A0281E00E94AD090C94DA
:1012E000C806CF93ADE4B1E050E040E030E061E00B
:1012F00070E02D912F3FA9F0E22FE295EF70F0E022
:1013000080A190E02F7002C0959587952A95E2F70D
:1013100080FD21C0CB01042E01C0880F0A94EAF79A
:10132000382B4F5F5F4F4530510519F780914902C7
:10133000C0E0831719F030934902C1E02C2F41E03F
:101340006AE472E089E492E00E94AE090E94D0064D
:101350008C2FCF91089580E0E3CF0895FF920F93F3
:101360001F93CF93DF93F82E092F162FD72FC42F5B
:10137000222349F081E080939E010E94A21C909359
:101380009D0180939C0180919E018823A1F0809112
:101390009C0190919D010E94BA1C069760F0EF2D70
:1013A000F02FA12FBD2FCE0FDF2FD11DEC17FD0782
:1013B00041F410929E01DF91CF911F910F91FF9008
:1013C000089581918D93F2CF0C943C042198299A31
:1013D00023982B9A83B1869581701B9905C090E064
:1013E000892B8093A101089592E0FACFE091A101A9
:1013F000EE0FEE0FE093A10143B141FB882780F986
:1014000043B143FB222720F943FF02C022E030E032
:10141000822BE82BE093A101EF70F0E0EE5AFE4F33
:1014200080819091A001890F8093A00184304CF0BD
:1014300080919F018F5F80939F0160E080E00E9418
:10144000E4098091A0018D3F4CF480919F0181506F
:1014500080939F0161E080E00E94E4098091A001F7
:10146000837887FF03C081508C6F8F5F8093A001CA
:101470000895CF92DF92EF92FF920F931F93CF9335
:10148000DF936C017B0164E670E088E70E940D0F3A
:10149000EC0197FD12C010E000E0F601E00FF11F33
:1014A000849164E670E00E94690FEC01892B29F4B5
:1014B0000F5F1F4F0E151F0581F70E94EC0FCE0125
:1014C000DF91CF911F910F91FF90EF90DF90CF9020
:1014D0000895EBE4F2E080E092E0DF019C011D92D0
:1014E00021503040E1F7F0935004E0934F048FEF28
:1014F0009FEF9093CE018093CD0108950E948A04BE
:101500008093C90180FD0FC080E88093C8010E94CC
:10151000070F6DE070E083E591E00E94390A892BA6
:1015200021F080E0089580E2F0CF8091C90163E06E
:1015300070E081FD26C080E591E00E94390A892B88
:1015400081F76DE070E080E491E00E94390A892B18
:1015500041F70E94AE1C6054784D864F9F4F6093B8
:101560004B0470934C0480934D0490934E040E945E
:10157000690A81E08093CC018093CB011092CA016B
:1015800008958DE491E0D9CF2091C80136E0839F82
:10159000C0011124629F800D911D1124811522E04C
:1015A000920714F090E080E0855B9D4F909350048B
:1015B00080934F04089520914F0430915004255496
:1015C00032404091C801642F70E0C9010E94922608
:1015D000481B463010F4240F311D211582E03807D6
:1015E00010F030E020E0255B3D4F30935004209315
:1015F0004F0408951F93CF93DF93162F8A3031F451
:1016000081E0DF91CF911F910C94740B8D3011F418
:1016100080E0F7CFC0914F04D091500496E0FE01D6
:10162000A2EAB1E001900D929A95E1F7803EC8F0F0
:1016300086E0FE0111928A95E9F711111EC0C09152
:101640004F04D091500446E050E0BE0182EA91E0A0
:101650000E94C926892BF9F4DF91CF911F910C9438
:10166000DB0AF6E08F9FB0011124605A7E4F46E0FE
:1016700050E0CE010E94C026E0CFE0914F04F091EF
:1016800050049F012A5F3F4F2E173F07C1F2808110
:1016900080958193F9CFCB54D240CE0125E0969529
:1016A00087952A95E1F721E030E0A90102C0440FB7
:1016B000551F8A95E2F7CA014091CD015091CE01A4
:1016C000842B952B269645E0D695C7954A95E1F74C
:1016D00002C0220F331FCA95E2F7822B932B9093FF
:1016E000CE018093CD01B8CFCF93382FE0914F0436
:1016F000F0915004EB54F2402091C801622F70E049
:10170000CF010E949226281B822F332369F066E0C6
:101710000E948626C82FC15010F4CF91089560E032
:1017200080E20E94FA0AF7CF9F01280F311D211590
:10173000324018F080E0F0E0E0E08E0F9F2F911D26
:10174000855B9D4F9093500480934F04E6CF1F9389
:10175000CF93DF93EC01162FFE018491811104C019
:10176000DF91CF911F910895612F0E94FA0A21966F
:10177000F3CF0E94AE1C6054784D864F9F4F60930C
:101780004B0470934C0480934D0490934E048091CD
:10179000CB01811108C062E070E08EE391E00E940D
:1017A000390A892B19F08091CB01089581E080934B
:1017B000CB01F9CF2F923F925F926F927F928F92DF
:1017C0009F92AF92BF92CF92DF92EF92FF920F93D0
:1017D0001F93CF93DF932091CD013091CE0121153E
:1017E000310531F08091CA0161E070E0882399F001
:1017F000DF91CF911F910F91FF90EF90DF90CF90ED
:10180000BF90AF909F908F907F906F905F903F9030
:101810002F9008958F5F082F10E01B01082E02C043
:10182000220C331C0A94E2F7A10142235323452BD7
:1018300089F39091C90190FD44C08295880F80760C
:101840008093020198013695279536952795209328
:101850000501815E809303011092060124E630E0C9
:1018600047E050E060E071E088E70E94980F892B24
:1018700009F0BECFA80125E0440F551F2A95E1F7D6
:101880008091C90180FD2BC0455B5D4F04E610E0EF
:1018900020E230E060E488E70E94BF0F892B09F066
:1018A000A7CF0E94B90BE101C095D0958091CD01E1
:1018B0009091CE01C823D923D093CE01C093CD01FE
:1018C00097CF880F880F880F80930201109205012F
:1018D000895F8093030183E080930601BFCFE8EA2C
:1018E000F1E080E2DF011D928A95E9F7A6E6B1E01A
:1018F00002E611E08AE6C82E81E0D82E97E0592E44
:10190000772473948D91E80129918E01240F352F4E
:10191000311D255B3D4FE82FF0E0E855FE4F90E08C
:1019200080E0652C681A872C082E01C0880C0A9468
:10193000EAF77901A12CE701B9907E01B820662D64
:101940006A196770962E062E000C770BDB2D01C0EE
:10195000DD0F9A94EAF771956195710967707727A1
:1019600001C0B6946A95EAF7BD2A6081962E9B283D
:101970009082A39468E0A612DECF0196319688305B
:10198000910579F6CA16DB0609F0BCCF04E610E033
:1019900020E230E048EA51E07DCF8091CB018823FE
:1019A00069F062E070E08CE391E00E94390A892BD3
:1019B00019F08091CB0108951092CB018091CB0159
:1019C00091E0892708950F931F938091CC0188237C
:1019D00001F160E080E00E94C40A0E94E1050E94DB
:1019E000DA0B8091CB018823A1F00E94AE1C0091FC
:1019F0004B0410914C0420914D0430914E04601B17
:101A0000710B820B930B97FD04C01F910F910C94E7
:101A1000CD0C1F910F9108950F931F93CF93DF93D8
:101A2000C62FD42F022FFC0182818823C9F0609336
:101A3000D1010E94A21C9093D0018093CF0180E23B
:101A40008C0F883008F050C0C77081E001C0880F4B
:101A5000CA95EAF7DF91CF911F910F910C9419125B
:101A60001091D101161335C08091CF019091D00112
:101A70000E94BA1C883C910560F5C0E2CD0F1D178D
:101A8000B9F080E2810F883040F4177081E001C026
:101A9000880F1A95EAF70E942012C83048F481E0B6
:101AA0009D2F977001C0880F9A95EAF70E9419122E
:101AB000802F0E940612C830B8F4D77081E001C0B0
:101AC000880FDA95EAF7DF91CF911F910F910C946F
:101AD000201280E28C0F883038F4C77081E001C09A
:101AE000880FCA95EAF7EFCFDF91CF911F910F9141
:101AF00008959C01CB01233F4CE5340731F190F46C
:101B0000283DFCE53F07E9F0293D4CE5340769F144
:101B1000273D3C4579F426E241EE61EE0E940C0D32
:101B200080E00895253FFCE53F07B9F090F0263F9F
:101B30003C45B9F0FC0182818823D1F01092D1019B
:101B4000089527E245EE65EEE9CF26E241EE60EE2C
:101B5000E5CF27E245EE64EEE1CF26E241EE62EE0C
:101B6000DDCF27E245EE66EED9CF28E241E0EBCFAC
:101B700081E00895CF93DF93EC01FB0182818823FC
:101B800009F419C1C230FCE5DF07C0F1C6319CE59C
:101B9000D90730F09E012A5F3C452930310570F5A8
:101BA0000E94461B9093560480935504C031ECE587
:101BB000DE0709F4CFC008F05BC0C8308CE5D80759
:101BC00009F4B6C088F5C430ECE5DE0709F4A8C016
:101BD000C0F4C2308CE5D80709F49CC0809155044C
:101BE0008260C330DC4509F498C08091550490911F
:101BF00056040E94541B0E94951480E0DF91CF91FF
:101C00000895809155048061C630ECE5DE0709F443
:101C100084C0809155048860C730DC4508F47DC0DD
:101C200080915504806279C0CC308CE5D80709F4E6
:101C300089C070F4809155048C60CA30ECE5DE07F1
:101C400009F46BC008F478C0809155048E7F65C09C
:101C5000CE308CE5D80709F479C0809155048B7F8C
:101C6000CF30DC4508F459C0809155048F7E55C0B3
:101C7000CB3FECE5DE0709F457C030F5C3318CE506
:101C8000D80709F46FC078F4C131ECE5DE0709F438
:101C900065C0C231DC4509F0A8CF0E94951480913F
:101CA00055048F773AC0C5318CE5D80709F462C076
:101CB00008F476C0809156048160CA3FDC4509F083
:101CC00094CF8093560491CFCF3FFCE5DF0709F412
:101CD0004DC088F4809156048D7FCD3F9CE5D90797
:101CE00081F3809156048E7FCE3FDC4550F3809186
:101CF00056048360E6CFC130FDE5DF0709F459C023
:101D000008F444C080E0C230DD4509F06ECF0E9487
:101D1000CB1B6BCF8091550481608093550465CFB8
:101D2000809155048460F9CF809156048260C9CFB8
:101D3000809155048064F1CF0E94951480915504E0
:101D40008068EBCF809155048D7FE7CF809155045B
:101D5000877FE3CF809155048F7DDFCF809155043D
:101D60008F7BDBCF80915504837FD7CF8091560442
:101D70008C7FA7CF8091550482FB992790F921E0B1
:101D8000922790FB82F990FB83F9C7CF809156048C
:101D9000982F909591708E7F892B90FB81F991CF30
:101DA0000E94951490915504892F97FB87F98058CC
:101DB000B4CF81E0ACCF81E021CFCF93DF93EB01B3
:101DC00086319C4511F50E94371A9A81992399F022
:101DD0008A7A91E009F490E09093D201811109C0D0
:101DE00089E20E94121A0E94831A80E0DF91CF914B
:101DF000089585E3F6CF8091D201811104C089E274
:101E00000E94191AF0CF85E3FBCF81E0EFCF10924B
:101E1000B9008CE08093B8000895EF92FF920F9381
:101E20001F93CF93DF93182FEB011092BC0084EA2D
:101E30008093BC000E94A21C7C018091BC0087FFA3
:101E400027C08091B900887F883029F08091B9003F
:101E5000887F8031D9F51093BB0084E88093BC0063
:101E60000E94A21C8C018091BC0087FF24C020919D
:101E7000B900287F90E080E02831B1F081E090E067
:101E8000203411F490E080E09195819591090CC087
:101E9000CF3FDC0791F20E94A21C8E199F098C177C
:101EA0009D0758F28EEF9FEFDF91CF911F910F9119
:101EB000FF90EF900895CF3FDC07A9F20E94A21C8B
:101EC000801B910B8C179D0770F2ECCF8FEF9FEF6B
:101ED000EBCF0F931F93CF93DF93EB018093BB0066
:101EE00084E88093BC000E94A21C8C018091BC00FD
:101EF00087FF11C02091B900287F81E090E028324F
:101F000011F490E080E0919581959109DF91CF9156
:101F10001F910F910895CF3FDC0741F30E94A21C4F
:101F2000801B910B8C179D0708F38EEF9FEFEECF70
:101F3000CF92DF92EF92FF920F931F93CF93DF9395
:101F40006B018A017901B9010E940D0FE6010C0DA8
:101F50001D1DC017D10761F424E92093BC00DF9157
:101F6000CF911F910F91FF90EF90DF90CF90089548
:101F700097FDF2CFB70189910E94690FEACFCF9206
:101F8000DF92EF92FF920F931F93CF93DF93C62FB1
:101F90006A017901B8010E940D0F97FD0CC0B801CC
:101FA0008C2F0E94690FE601EC0CFD1CCE15DF059D
:101FB00011F097FF0CC024E92093BC00DF91CF9172
:101FC0001F910F91FF90EF90DF90CF900895B8018F
:101FD00089910E94690FEACF84E98093BC0008953B
:101FE0009093D8018093D7010895E091D701F091A3
:101FF000D801309721F00190F081E02D099480E024
:102000000895E091D701F091D801309721F0028036
:10201000F381E02D09940895E091D701F091D80162
:10202000309739F022E0DC012C930480F581E02D1B
:10203000099408952091D5013091D60128173907C8
:1020400071F09093D6018093D501E091D701F09182
:10205000D801309721F00680F781E02D099408958A
:102060002091D3013091D4012817390771F0909352
:10207000D4018093D301E091D701F091D80130973A
:1020800021F00084F185E02D0994089585B78068DA
:1020900085BF85B7806885BF0895089508950C941D
:1020A0004D1008950C9451100E9446100E944E103D
:1020B0000C944F1081E008950C945A100E94991CC2
:1020C0000E944B0980E00E947E0A0E94FE1C0E9432
:1020D000E6090C945210FF920F931F93CF93DF9356
:1020E000CDB7DEB72A970FB6F894DEBF0FBECDBFCF
:1020F0000E947109F82E0E945C10882309F452C0D6
:1021000080E00E944409082F1091DA01181709F4A1
:1021100049C080912E0281FD0E944A09912F90278B
:1021200080E011E0292F2123C1F18E831F8201233A
:1021300081E009F480E088870E94A21C8160782FEA
:102140009A8789874E815F8168858A850E94EF1012
:102150008091DA0118271093DA010E94F6090E9493
:10216000E30CF1100E94B90B0E948B1E0E94F50F28
:102170009091D901891739F10E94F50F8093D90107
:102180002A960FB6F894DEBF0FBECDBFDF91CF9178
:102190001F910F91FF900C94D9068F5F110F85301E
:1021A00009F0C0CF8FEF89838A831B820E94A21C13
:1021B0008160782F9D838C8349815A816B818D81C9
:1021C0000E94EF10CACF2A960FB6F894DEBF0FBE5A
:1021D000CDBFDF91CF911F910F91FF900895CF93C5
:1021E000DF93CDB7DEB72B970FB6F894DEBF0FBEE7
:1021F000CDBF4F83588769877A878B871E821D8260
:1022000085E0FE013796DE01119601900D928A95C8
:10221000E1F749815A816B817C818D819E812B966A
:102220000FB6F894DEBF0FBECDBFDF91CF910C94F7
:102230000B17FC01808191810C94E419CF93C82F76
:10224000882309F48BC08238C1F40E94F50F81FD08
:1022500085C089E30E94121A0E94831A2FEF81EE33
:1022600094E0215080409040E1F700C0000089E3F5
:102270000E94191ACF910C94831A8338A1F40E94FA
:10228000F50F80FD6BC083E50E94121A0E94831A2D
:102290002FEF81EE94E0215080409040E1F700C0A4
:1022A000000083E5E5CF8438A1F40E94F50F82FD9C
:1022B00055C087E40E94121A0E94831A2FEF81EE04
:1022C00094E0215080409040E1F700C0000087E496
:1022D000CFCF8CEF8C0F813A90F46C2F8091070157
:1022E000909108010E94E21B882329F08C2F0E9404
:1022F000191A0E94831A8C2F0E94121ABBCF80E2F7
:102300008C0F883048F4C77081E001C0880FCA95EF
:10231000EAF70E943A1AAECFEBE5EC0FE33040F457
:10232000F0E0E856FE4F808190E0CF910C941A10B7
:10233000E8E5EC0FE73150F4F0E0EE0FFF1FE6594F
:10234000FE4F80819181CF910C943010C03F30F0CE
:102350008C2F0E94991DCF910C94801ECF910895CF
:10236000882309F452C0823871F40E94F50F81FF6E
:102370004CC089E30E94121A0E94831A89E30E94CA
:10238000191A0C94831A833859F40E94F50F80FFB0
:102390003CC083E50E94121A0E94831A83E5EFCFA6
:1023A000843859F40E94F50F82FF2FC087E40E9401
:1023B000121A0E94831A87E4E2CF9CEF980F913A99
:1023C000F0F290E2980F983050F4877091E001C0DD
:1023D000990F8A95EAF7892F0E94401AD2CF9BE580
:1023E000980F933020F490E080E00C941A1098E558
:1023F000980F973120F490E080E00C943010803FEB
:1024000020F00E94011E0C94801E0895CF93C82FC7
:102410000E941E11C93349F42FEF87EE93E021503B
:1024200080409040E1F700C000008C2FCF910C94C9
:10243000B011882321F00E943A1A0C94831A08954F
:10244000882321F00E94401A0C94831A0895BF92A9
:10245000CF92DF92EF92FF920F931F93CF93DF9370
:102460006C01D62FC72FFC01058102950F701281D8
:1024700011110E94571A0E94301AE82E882391F0F9
:102480001123D1F08C2F807F803421F080E28D0FDA
:10249000883090F082E00E94CE1A0E94301A91E0BB
:1024A000E82EE926BC2EB2949FE0B922EB2DF0E095
:1024B000E65EF84D0C94BA26E12CF4CF0C2F0F7089
:1024C000C07F11F00295007F1123A9F0002359F07D
:1024D00080E28D0F883010F0D11109C0802F0E944A
:1024E0003A1A0E94831A8D2F0E941E1114C0802F49
:1024F0000E944A1AF6CF8D2F0E94B011002359F086
:1025000080E28D0F883010F0D1112CC0802F0E94F6
:10251000401A0E94831A2B2D2850330B243031058A
:1025200020F40E94F50F0E94D906EE2009F49EC106
:102530000E942C1A80FD9AC1F60112820E94261A6E
:102540000E94AF18C6010E9457140E94261ADF91FC
:10255000CF911F910F91FF90EF90DF90CF90BF90A0
:102560000C94D018802F0E94501AD3CFFC2FFF70EC
:10257000FF2EC07FC03219F0F29480EFF822DD23E5
:1025800069F0D13049F1112391F1002351F1F601A5
:10259000858180FFA8CF8F70858323C0112381F0B0
:1025A000011106C00E946A1A8F290E941912B3CF26
:1025B0000130C1F70E946A1A8F290E94701AABCFAE
:1025C000011106C00E94791A8F2D0E942012A3CFFC
:1025D000013009F4A0CFF6CF112329F0063008F01E
:1025E0009ACF8F2DE2CF053008F095CFEDCF0023A5
:1025F00059F3D93349F4FFEF27EE33E0F15020408F
:102600003040E1F700C000008D2F0E94B01183CF51
:102610008C2F86958695837069F0813009F07BCF89
:102620008D2F9C2F9370111102C090E080E00E94CA
:10263000301071CF8D2F9C2F9370111102C090E03C
:1026400080E00E941A1067CF8D2F112329F00E947D
:10265000991D0E94801E5FCF0E94011EFACF8C2F11
:10266000837009F041C0111156CF4D2F4295469508
:102670004770440F440F0D2F0F7010E030E020E042
:10268000042E04C0000F111F221F331F0A94D2F71B
:1026900060E070E0CB01D4FF0FC06FE070E080E03D
:1026A00090E004C0660F771F881F991F4A95D2F7E4
:1026B0006095709580959095C695C695C370602B72
:1026C000712B822B932BC23049F058F4C13019F092
:1026D0000E94411820CF0E942F181DCF0E9453182E
:1026E0001ACF0E942D1817CF8695112311F08C2F29
:1026F0008170882309F40FCF4D2F4295469547707E
:10270000440F440F0D2F0F7010E030E020E0042E36
:1027100004C0000F111F221F331F0A94D2F760E07C
:1027200070E0CB01D4FF0FC06FE070E080E090E07C
:1027300004C0660F771F881F991F4A95D2F76095CE
:10274000709580959095C695C695C370602B712B3A
:10275000822B932BC23049F058F4C13019F00E94FB
:102760002619D9CE0E941419D6CE0E943819D3CE7C
:102770000E946918D0CECF70112329F08C2F0E94AF
:10278000AF188D2F12CF8D2F0E9420128C2F0E94F8
:10279000D018C1CED23F89F160F4D03FC9F0D13F0B
:1027A00029F1112309F442C001119DCE8C2F8F71A4
:1027B00021C0D33F39F1D43FA1F7112369F1CF7183
:1027C0008C2F0E94AF1863E08C2F0E94B91AA3CE01
:1027D000112341F0053008F09ECE8C2F8F710E949E
:1027E000F31899CE063008F096CEF7CF8C2F8F7164
:1027F000112369F20E94AF188ECE8C2F8F71112396
:10280000C9F3C5CF112329F08C2F8F710E949A181C
:1028100082CE0E9475187FCE81E00E94CE1A0230CF
:1028200008F479CE82E00E94CE1A75CE002359F0CA
:10283000D93309F0E9CE8FEF97EEE3E08150904075
:10284000E040E1F7DFCE8C2F8F71A1CF4C2F4F707E
:102850006D2FC6010E942D070E94A5175CCE4C2F3C
:102860004F706D2FC6010E94300755CEDF91CF917A
:102870001F910F91FF90EF90DF90CF90BF90089540
:102880000F931F93CF93DF93EC01688179818A8145
:102890000E94EE198C010E944A190E942C18B8015E
:1028A000CE01DF91CF911F910F910C942712CF93FE
:1028B000DF93EC018B819C81892B29F088819981A0
:1028C00089238F3F59F4DF91CF910895CE010E9463
:1028D0004014CE01DF91CF910C94BD06CE010E9431
:1028E000F1068111F3CF0E94301A882361F38A81A7
:1028F000882349F382E0DF91CF910C94CE1A0E9495
:10290000571A0E94671A0E94831A0E94A51F0E94EC
:10291000801E90E080E00E941A1090E080E00C940D
:1029200030100E94201A0C947F140E94471A0C94B5
:102930009114E92FE295EF70E250EE3070F4F0E080
:10294000E65DF84D0C94BA26803F19F020F4883EDD
:1029500020F481E00895843FE1F380E00895883E0B
:10296000C0F3813FD1F7F5CF93FB882780F9089515
:102970000E94E4190C949914CF93DF9300D000D0F7
:102980000F92CDB7DEB70F900F900F900F900F9072
:10299000DF91CF910895CF93DF9300D000D000D086
:1029A000CDB7DEB726960FB6F894DEBF0FBECDBF0B
:1029B000DF91CF9108951F93CF93DF93C091DC01F6
:1029C00016E08091DD018C1304C0DF91CF911F913F
:1029D0000895D0E01C9FF0011D9FF00D1124E252DC
:1029E000FE4F4081518162817381848195810E9473
:1029F000CB142196C770E5CF40910E0250910F0283
:102A00006091100270911102809112029091130254
:102A10000C94CB141F93CF93DF9380911302807F8C
:102A2000A9F480911002882389F08091DC01C09183
:102A3000DD0160910E0270910F02A0911102B09120
:102A40001202D62FD72316E0C81304C0DF91CF910E
:102A50001F91089590E0109711F0DF3F19F401964F
:102A60008770F2CF189F9001199F300D1124F90142
:102A7000E252FE4F41814713F2CF40814613EFCF20
:102A800042814111ECCF438154814A1B5B0B483C8E
:102A9000510528F7809113028F7080618093130293
:102AA000F901ED51FE4F80818F70806180838EE04F
:102AB00092E00E945714DF91CF911F910C94DB1488
:102AC000AF92BF92CF92DF92EF92FF920F931F933C
:102AD000CF93DF93CDB7DEB761970FB6F894DEBF23
:102AE0000FBECDBF8C0185E0F801DE011D9601907F
:102AF0000D928A95E1F7F80140815181E2808EE0E4
:102B0000C82E82E0D82E60911102709112026115D8
:102B1000710509F461C190910E0220910F02892F75
:102B200082238F3F09F458C1A380B480F090100233
:102B3000F501E61BF70BFF2009F4FCC0809113029E
:102B4000382F307FE83CF10508F0B2C0311179C070
:102B5000FE2C251323C0941321C0E1101FC08F70D9
:102B60008061809313020E94FC14C6010E945714D6
:102B700080911302F80185838F2D61960FB6F8942A
:102B8000DEBF0FBECDBFDF91CF911F910F91FF90A0
:102B9000EF90DF90CF90BF90AF900895AB2829F0D1
:102BA000842F85238F3F09F033C180E0F82FF17027
:102BB000DF2E80FF3CC08091DC012091DD0136E0FA
:102BC000821315C04D875E878D859E850E94E4190E
:102BD000292F22952F702230F0F0243018F59F70A5
:102BE000F1F0F8019581907FD1F4D12C1EC090E0D6
:102BF000389FF001399FF00D1124E252FE4F6181A0
:102C0000651306C06081641303C062816E110FC03A
:102C100001968770D5CF9F7011F0882331F3805EC5
:102C2000883018F3C8010E945714FD2CA5CFEE2060
:102C300009F4A2CF80911302816080931302F12CDA
:102C40009BCF251306C0941304C0F801EE2009F4AD
:102C50008DC04D875E878D859E850E94B814882320
:102C600019F1EE2009F180911302803270F0209169
:102C70000E0230910F0238872F831986BB86AA86F1
:102C80008C87CE0107960E94571486E0F801AEE0CB
:102C9000B2E001900D928A95E1F70E940A150E9418
:102CA000FC14FF24F39468CFC8010E945714F9CF95
:102CB000311113C07A2DB98AA88A6E2D89890E9494
:102CC000BC148EE092E00E94571486E0F601119247
:102CD0008A95E9F70E94FC14B2CF25130FC0941314
:102CE0000DC0E1100BC0F8018583C8010E94571484
:102CF00086E0F60111928A95E9F73ECF4D875E870F
:102D00008D859E850E94B814882371F2EE2061F2B1
:102D100080911302803208F4B8CF20910E023091D6
:102D20000F023A8329831B82BD82AC828E83CE013F
:102D30000196A9CFE83CF10508F041C0FE2CEE2039
:102D400009F4B2CF25132AC0941328C0809113022E
:102D500080FD1BC0982F907FC1F0F8018583903FC4
:102D600031F0982F907F905F8F70892B8583C801F9
:102D70000E94571486E0F801AEE0B2E001900D9297
:102D80008A95E1F70E94FC14F7CE86E0F801AEE0E8
:102D9000B2E001900D928A95E1F7EECE4D875E8705
:102DA0008D859E850E94B81481116FCF809113028A
:102DB000816080931302C8010E945714DDCE7A2DE2
:102DC000B98AA88A6E2D89890E94BC1486E0F60112
:102DD00011928A95E9F7D6CFEE2009F465CF4D8799
:102DE0005E878D859E850E94B814F82E882309F48D
:102DF0005BCF86E0F801AEE0B2E001900D928A95DB
:102E0000E1F78EE092E00E9419110E940A15BACFF4
:102E100081E08E25CBCE1F93CF93DF93CDB7DEB766
:102E20002C970FB6F894DEBF0FBECDBF4F835887E7
:102E300069877A878B879C87CE0107960E946015E9
:102E4000882369F08A859B85892B39F04F815885C5
:102E5000842F85238F3F09F071C016E05FC086E0A4
:102E6000FE013796DE01119601900D928A95E1F7E9
:102E70008A859B85892B89F38F81988589238F3F4C
:102E800061F32091DD0130E0C90101968770992737
:102E90004091DC014817190671F40E9495141092B4
:102EA000DD011092DC0186E0EEE0F2E0DF011D9230
:102EB0008A95E9F7D2CF96E0929FD001939FB00D0B
:102EC0001124A252BE4FFE01319601900D929A95A7
:102ED000E1F78093DD010E94DB14BFCF819FC00129
:102EE000112482529E4F0E9460158823E9F0E091E0
:102EF000DC011E9FF0011124E252FE4F40815181FE
:102F000062817381848195810E94CB148091DC0160
:102F100090E00196877099278093DC018091DC0115
:102F20009091DD018913DACF2C960FB6F894DEBFAD
:102F30000FBECDBFDF91CF911F91089569857A852E
:102F40008B859C850E94CB1488CFEF92FF920F93C4
:102F50001F93CF93DF938C01892B81F0F12CEE240A
:102F6000E394E8012196F8018491843770F4843069
:102F700008F05FC08130B1F08230A1F1DF91CF91D4
:102F80001F910F91FF90EF900895853709F44CC081
:102F900008F43DC09CE7980F903780F78F770E9428
:102FA000B01149C00E5F1F4FFE01849190E2980F4F
:102FB000983060F48770FE2D01C0FF0F8A95EAF704
:102FC0008F2F0E945A1A0E94831A02C00E941E115B
:102FD0008F2D815030F2EFE9FFE03197F1F700C01B
:102FE0000000F7CF0E5F1F4FFE01849190E2980F13
:102FF000983050F48770FE2D01C0FF0F8A95EAF7D4
:103000008F2F0E94601ADFCF0E94B011E1CF0E5FB8
:103010001F4FFE01C491C150D8F28FE99FE0019784
:10302000F1F700C00000F7CF0E5F1F4FFE01F490D4
:10303000CFCF0E941E118E01CBCF08950C941D1886
:103040000E941E1860931D0270931E0280931F023F
:10305000909320020C947F1408950C9420180F93E1
:103060001F9300911D0210911E0220911F023091AA
:103070002002602B712B822B932B1F910F910C94AC
:1030800020180F931F9300911D0210911E02209192
:103090001F023091200260237123822393231F910A
:1030A0000F910C9420180F931F9300911D02109103
:1030B0001E0220911F023091200260277127822773
:1030C00093271F910F910C9420180C941D180C94A9
:1030D00065180E9467186093190270931A02809312
:1030E0001B0290931C020C947F1460E070E0CB01F3
:1030F0000C946918611571058105910529F481E029
:10310000442361F080E00895DC01CB0104C0B69552
:10311000A795979587954A95D2F781700895482F7E
:103120006091190270911A0280911B0290911C0209
:103130000C947A180F931F9341E050E060E070E028
:103140008A019B0104C0000F111F221F331F8A95A3
:10315000D2F7C901B8011F910F910C9469180F9310
:103160001F9341E050E060E070E004C0440F551F41
:10317000661F771F8A95D2F78091190290911A02E3
:10318000A0911B02B0911C028A019B01082B192BF4
:103190002A2B3B2BC901B8011F910F910C94691880
:1031A0000F931F9341E050E060E070E004C0440FD3
:1031B000551F661F771F8A95D2F7CB01BA0160951C
:1031C0007095809590950091190210911A022091A6
:1031D0001B0230911C0260237123822393231F91D1
:1031E0000F910C9469180F931F9341E050E060E039
:1031F00070E004C0440F551F661F771F8A95D2F7F1
:103200008091190290911A02A0911B02B0911C02A8
:103210008A019B01082719272A273B27C901B801E2
:103220001F910F910C9469180F931F93009119022D
:1032300010911A0220911B0230911C02602B712BFD
:10324000822B932B1F910F910C9469180F931F934E
:103250000091190210911A0220911B0230911C0258
:1032600060237123822393231F910F910C9469187B
:103270000F931F930091190210911A0220911B02C3
:1032800030911C0260277127822793271F910F918D
:103290000C9469180895E92FEE0FEE0F9E0F890F19
:1032A000982F977041E001C0440F9A95EAF78695F0
:1032B0008695869595E0899FF0011124EC5EFD4F7F
:1032C00030E020E070E05191DF011197CB01022E38
:1032D00002C0969587950A94E2F7817081958527BB
:1032E000842385278C932F5F3F4F2530310559F775
:1032F0000895E92FEE0FEE0F9E0F890F982F97700C
:1033000086958695869525E0829FF0011124EC5ED6
:10331000FD4F50E040E080E0219130E0092E02C0F6
:10332000369527950A94E2F721703327042E01C0C1
:10333000220F0A94EAF7822B4F5F5F4F4530510509
:1033400059F70895BF92CF92DF92EF92FF920F93B9
:103350001F93CF93DF938C01C0901902D0901A0273
:10336000E0901B02F0901C0280911D0290911E02C1
:10337000A0911F02B0912002C82AD92AEA2AFB2A6A
:10338000CFE1D0E0BC2ED701C6010C2E04C0B6950B
:10339000A795979587950A94D2F780FD0EC021973F
:1033A00088F7B12C8B2DDF91CF911F910F91FF905A
:1033B000EF90DF90CF90BF900895B8018C2F0E94BE
:1033C0004F07019761F3EECFCF93DF93EC010E949B
:1033D000A219BE01DF91CF910C944F071F93CF9399
:1033E000DF93EB019091DB01992331F0CB01DF9169
:1033F000CF911F910C94E419882379F0CB010E949E
:10340000A219182F682FCE010E944B19BE01812FDF
:10341000DF91CF911F910C944F07CB010E94791936
:10342000182FF4CF682F80910701909108010C9418
:10343000181C682F80910701909108010C941A1CA8
:1034400080910701909108010C941C1C809121022D
:1034500085958595859508958091210287700895B9
:1034600090912102977081E009F480E008958091A5
:103470002D02089590912D02892B80932D0208959D
:10348000809590912D02982390932D02089510928B
:103490002D02089590912C02892B80932C0208957F
:1034A000809590912C02982390932C02089510926D
:1034B0002C02089590912B02892B80932B02089562
:1034C000809590912B02982390932B02089510924F
:1034D0002B02089580912202089508950C946D1A8C
:1034E00090912202981721F0809322020C946E1A78
:1034F000089580912202882329F01092220280E010
:103500000C946E1A0895E0910701F09108018091E2
:103510002D028083E0910701F09108018081909154
:103520002C02892B8083E0910701F09108018081B2
:1035300090912B02892B808390912202992381F014
:10354000E0910701F09108018081892B80838091AF
:103550000701909108010E94D01B81110E94791AE5
:1035600080910701909108010C94011008950C942A
:10357000B61A98E0899F90011124622B6093210272
:103580000E94AF18809121028595859585950C94B0
:10359000B71A1092210280E00C94B71A9091210280
:1035A0008095892380932102282F277071F4282F7A
:1035B000082E000C330B9217130639F0859585956C
:1035C00085950E94D0180C94C91A0895CF92DF9265
:1035D000EF92FF926C01EE24FF2420E0C114D1048D
:1035E000E104F10419F0C701B60120E1C72ED82E7D
:1035F000E92EFF24C114D104E104F10419F0285F7D
:10360000C701B6016B017C0154E0F694E794D794AE
:10361000C7945A95D1F7C114D104E104F10419F00B
:103620002C5FC701B6016B017C0142E0F694E79480
:10363000D794C7944A95D1F7C114D104E104F10499
:1036400019F02E5FC701B601969587957795679516
:10365000672B682B692B09F02F5F822FFF90EF906B
:10366000DF90CF90089590E080E00E94DE2621E078
:103670008C3E9E4F09F020E0822F089582E090E07A
:103680000C94D62683E090E00C94D626CF9384E069
:1036900090E00E94D626C82F81E290E00E94D626B4
:1036A000982F8C2FCF910895CF93C92F682F84E046
:1036B00090E00E94E4266C2F81E290E0CF910C9480
:1036C000E426AB01BC018FE090E00C94F626AB0140
:1036D000BC0183E190E00C94F62660E070E0CB0141
:1036E0000C94671B6CEE7EEF90E080E00E94022756
:1036F00060E082E090E00E94E42660E083E090E0F9
:103700000E94E42610921D0210921E0210921F02C7
:103710001092200260E084E090E00E94E42660E0E5
:1037200081E290E00E94E42660E085E090E00E9463
:10373000E42660E086E090E00E94E4266FEF87E0F8
:1037400090E00E94E42640E050E0BA0188E090E07A
:103750000E94F62660E08DE090E00E94E42640E0C2
:1037600050E0BA0188E190E00E94F62660E087E12F
:1037700090E00E94E42640E050E0BA018CE190E045
:103780000E94F62660E080E290E00E94E4260C941D
:1037900035040C94721B682F8EE090E00C94E426A4
:1037A0009C012E5F3F4FAC01485F5F4F80E02417C4
:1037B000350709F40895F90191919F019923B9F30F
:1037C0008F5FF5CF662349F0FC0132960896219170
:1037D000261729F0E817F907D1F780E0089581E06E
:1037E00008959C01FC0132969FEF80E041914617BD
:1037F00051F09F3F19F4411101C0982F8F5F86301F
:10380000A9F79F3F09F40895290F311D97FD3A95B7
:10381000F90162830895FC013296089621912613DE
:1038200003C0DF0111971C92E817F907B9F7089553
:103830000C94F11B0C940B1C029626E0FC011192D7
:103840002A95E9F70895089508950C94241C0E9480
:10385000251C80915B04843049F110922F0288E18D
:1038600090E020E40FB6F894A895809360000FBE16
:103870002093600080E00E94D9060E94251C83B737
:10388000817F846083BF83B7816083BF789488958C
:1038900083B78E7F83BF0FB6F894A89580916000A0
:1038A000886180936000109260000FBE08950895B3
:1038B0000E94231C0E9471090E94571C80E00E94F4
:1038C000440991E0811101C090E0892F0895089585
:1038D0000C94671C0E9495140E94F50F0E94D90653
:1038E0000C94681C1F921FB61F9211248F939F93F4
:1038F000AF93BF9380912F02811113C08091510427
:1039000090915204A0915304B09154044196A11D8A
:10391000B11D8093510490935204A0935304B0932B
:103920005404BF91AF919F918F911F901FBE1F9024
:10393000189582E084BD93E095BD9AEF97BD809382
:103940006E0008952FB7F89480915104909152041D
:10395000A0915304B09154042FBF08952FB7F89449
:1039600060915104709152048091530490915404D9
:103970002FBF08959C014FB7F89480915104909106
:103980005204A0915304B09154044FBF821B930B77
:10399000089578941F921FB61F9211248F939F93BE
:1039A000AF93BF938091510490915204A09153041E
:1039B000B09154040196A11DB11D809351049093C0
:1039C0005204A0935304B0935404BF91AF919F91BC
:1039D0008F911F901FBE1F90189587E797E79093D0
:1039E00001088093000888E19AE00FB6F894A89542
:1039F000809360000FBE90936000FFCF0E94331B46
:103A0000811102C00E94C91B0E943E1B80932E029E
:103A10000E94461B90935604809355040E94421BBB
:103A2000682F70E090E080E00C942D1880913702B0
:103A300080FF12C060910E0185E0689FB0011124E3
:103A4000759567957595679560387105A8F5611549
:103A50007105A1F1862F089581FF09C060910E01C3
:103A600085E0689FB001112475956795EDCF609151
:103A70000E0182FD0AC0809136028823D1F0909118
:103A80000D0160910E01891728F085E0689FB00153
:103A90001124DACF869FB001112485E0869F900122
:103AA000879F300D1124692F70E0C9010E94A6265E
:103AB000CBCF65E070E0CECF8FE7089581E0089529
:103AC0008091370280FF0CC060910A0170E075950B
:103AD0006795759567956115710549F1862F08956C
:103AE00081FF06C060910A0170E075956795F3CF7C
:103AF00060910A0182FD0BC0909136029923A1F0DA
:103B00006091090180910A01961738F0682F70E0E2
:103B10006038710500F38FE70895899FC001112473
:103B200070E00E94A626F4CF61E070E0D7CF81E07C
:103B30000895803F31F40E94161D819580933B02C9
:103B40000895813F19F40E94161DF8CF823F31F489
:103B50000E94161D819580933A020895833F19F4BF
:103B60000E94161DF8CF893F29F40E94601D8093A2
:103B70003C0208958A3F21F40E94601D8195F7CF91
:103B80008B3F31F40E94601D819580933D02089522
:103B90008C3F19F40E94601DF8CF843F31F480916E
:103BA00039028160809339020895853F21F4809124
:103BB00039028260F7CF863F21F480913902846018
:103BC000F1CF873F21F4809139028860EBCF883FA5
:103BD00021F4809139028061E5CF8D3F31F48091ED
:103BE000370281608093370208958E3F21F48091DF
:103BF00037028260F7CF8F3FB9F780913702846038
:103C0000F1CF90913A02803F41F480913B0287FDD1
:103C100010923B02992371F00895813F29F480911D
:103C20003B021816ACF3F6CF823F81F497FFF2CF38
:103C300010923A0280913B0290913C02892B909124
:103C40003D02892B49F7109236020895833F19F4FB
:103C5000191674F3DFCF893F39F480913C021816AE
:103C6000CCF610923C02D6CF8A3F29F480913C02D8
:103C700087FFD0CFF6CF8B3F39F480913D0287FF8D
:103C8000C9CF10923D02C6CF8C3F29F480913D02EE
:103C90001816BCF3BFCF843F31F4809139028E7F78
:103CA00080933902B7CF853F21F4809139028D7F0F
:103CB000F7CF863F21F4809139028B7FF1CF873F88
:103CC00021F480913902877FEBCF883F21F48091E6
:103CD00039028F7EE5CF8D3F31F4809137028E7FA0
:103CE0008093370297CF8E3F21F4809137028D7FEA
:103CF000F7CF8F3F09F08ECF809137028B7FF0CFC7
:103D000088E392E00E940C100E94A21C909335025E
:103D1000809334020895CF93DF9300D000D000D079
:103D2000CDB7DEB786E0E8E3F2E0DE011196019060
:103D30000D928A95E1F780913A0290913B02892B8E
:103D400081F080913202909133020E94BA1CAC0142
:103D500090913602992331F180910F018417150655
:103D600070F180913C0290913D02892B91F08091FD
:103D70003002909131020E94BA1CAC01909136023F
:103D8000992309F478C080910B018417150608F473
:103D900080C026960FB6F894DEBF0FBECDBFDF9170
:103DA000CF910895209110018AE0289F900111245D
:103DB00024173507B0F69F5F9093360202C09F3FED
:103DC000D1F710923C0210923D0280913A021816EF
:103DD00024F40E94161D80933A0280913A0287FFD4
:103DE00005C00E94161D819580933A0280913B0286
:103DF000181624F40E94161D80933B0280913B020A
:103E000087FF05C00E94161D819580933B0230916B
:103E10003A023323A1F020913B02222381F045EBAB
:103E20003403C00111249923F1F090933A0245EB39
:103E30002403900111243323D1F030933B020E94DC
:103E4000801E8091340290913502909333028093CA
:103E5000320286E0FE013196A8E3B2E001900D92B5
:103E60008A95E1F77ECF81E080933A02E0CF81E04E
:103E700080933B02E4CF20910C018AE0289F9001BF
:103E800011242417350708F084CF9F5F90933602E2
:103E900002C09F3FD1F710923A0210923B028091EC
:103EA0003C02181624F40E94601D80933C0280910D
:103EB0003C0287FF05C00E94601D819580933C02F3
:103EC00080913D02181624F40E94601D80933D02EB
:103ED00080913D0287FF05C00E94601D81958093FF
:103EE0003D0230913C023323A1F020913D02222378
:103EF00081F045EB3403C00111249923F1F0909334
:103F00003C0245EB2403900111243323D1F030937C
:103F10003D020E94801E8091340290913502909360
:103F200031028093300286E0FE013196A8E3B2E0D0
:103F300001900D928A95E1F72CCF81E080933C02AD
:103F4000E0CF81E080933D02E4CF86E0E8E3F2E059
:103F5000DF011D928A95E9F710923602109237021E
:103F60000895809146020895CF93DF9300D00F9279
:103F7000CDB7DEB790915B04943019F589837B83CC
:103F80006A8382E08093E9008FEF9091E80081508E
:103F900095FD06C095ED9A95F1F700008111F5CFDA
:103FA0008091E80085FF0DC050E040E063E070E0E4
:103FB000CE0101960E94F5218091E8008E778093D2
:103FC000E8000F900F900F90DF91CF910895CF935D
:103FD000DF93EC010E94D821823011F0843031F45B
:103FE000BE0184E0DF91CF910C94B41FDF91CF919B
:103FF0000895BC0183E00C94B41FCF93DF93EC01D0
:104000000E94D821823011F08430F9F482E080934C
:10401000E9008FEF9091E800815095FD06C095ED85
:104020009A95F1F700008111F5CF8091E80085FFA6
:104030000CC050E040E066E070E0CE010E94F52147
:104040008091E8008E778093E800DF91CF9108950A
:10405000CF93DF93EC010E94D821823011F084309D
:1040600039F581E08093E9008FEF9091E80081506D
:1040700095FD06C095ED9A95F1F700008111F5CFF9
:104080008091E80085FF14C050E040E068E070E0F7
:10409000CE010E94F5218091E8008E778093E800A0
:1040A00088E0FE01AEE3B2E001900D928A95E1F75F
:1040B000DF91CF91089580915A04811109C00E9427
:1040C00085230E94E2238091E20084608093E200D5
:1040D000089510925A040895089508950C946A1C46
:1040E00042E061EC81E00E94012342E261EC82E067
:1040F0000C94012380915D04833009F45FC030F497
:104100008130C1F1823009F49BC008958A3009F4EE
:1041100087C08B3009F46DC0893009F04EC08091A2
:104120005C04813209F049C080916004909161047F
:10413000029708F042C08091E800877F8093E800F2
:104140008091E80082FF35C09091F3008091F200E9
:10415000029729F48091F1008B7F813021F48091C6
:10416000F100809346028091E8008B778093E8000D
:104170000C94352380915C04813AF9F48091E80035
:10418000877F8093E8008091600490916104892B7F
:1041900061F468E08EE392E070E00E944422809136
:1041A000E8008B778093E800089560E090E080E07D
:1041B000F3CF80915B048111C3CF089580915C049B
:1041C000813AD9F78091600490916104892BA9F715
:1041D0008091E800877F8093E8008091E80080FF6D
:1041E000FCCF80911B018093F1008091E8008E77D5
:1041F000BDCF80915C04813201F780916004909181
:104200006104892BD1F68091E800877F8093E800D4
:104210000E94352380915E0480931B010C949514B9
:1042200080915C04813249F68091E800877F809319
:10423000E8000E94352380915F048093470208952F
:1042400080915C04813A09F0B8CF8091E800877FC3
:104250008093E8008091E80080FFFCCF80914702C6
:10426000C2CF84B7877F84BF0FB6F894A89580919A
:104270006000886180936000109260000FBE80E84B
:1042800090E00FB6F89480936100909361000FBEA8
:104290000E9454100E9485230E94E2238091E20034
:1042A00084608093E20078940E946B260E945E10E6
:1042B00081E191E00E94F00F80915B04853019F05C
:1042C0000E946B10F9CF0E94271C8091590488230B
:1042D00099F30E94581C882379F30E94DF21ECCFC8
:1042E0000C947221292F33272330310519F168F4FA
:1042F0002130310509F44AC02230310509F44BC0A0
:1043000090E080E030E020E028C02132310579F1F2
:1043100022323105A9F780E490E028E937E0611501
:104320007105D9F081E890E027E137E0613071054F
:10433000A1F0E6CF99278130910599F0009741F0DF
:104340008230910589F00397D9F6E0EAF6E002C0E1
:10435000E6ECF6E0849190E09F01FA01318320833E
:104360000895E0EBF6E0F6CFE6EAF6E0F3CF89E079
:1043700090E02CED36E06115710579F389E090E06D
:1043800025EF36E06130710541F3BACF82E190E06C
:1043900025E037E0E2CF8BE390E02AEC36E0DDCF9A
:1043A00080915B04843011F482E0089581E00895E7
:1043B00080914802811102C00C94D021089580E1BF
:1043C00089BD82E189BD09B400FEFDCF8091D8008E
:1043D0008F7D8093D8008091E00082608093E00020
:1043E0008091E00081FDFCCF0895AF92BF92CF9203
:1043F000DF92FF920F931F93CF93DF936C01EB013A
:104400008A010E945423F82E811123C00115110541
:1044100039F0F80180819181C81BD90BC80ED91ED3
:10442000B12CA12C2097A9F08091E80085FD22C035
:104430008091E8008E778093E80001151105A1F0C6
:10444000F80180819181A80EB91EB182A08285E019
:10445000F82E8F2DDF91CF911F910F91FF90DF905C
:10446000CF90BF90AF9008950E9454238823D1F23B
:10447000F82EEFCFF60181916F018093F100219723
:10448000FFEFAF1ABF0ACECFFC018091620490917A
:10449000630486179707A0F06115710529F49091C0
:1044A000E8009E779093E80090E06115710551F463
:1044B000911108C08091E80082FF34C080E0089527
:1044C000BC01F2CF80915B048823C1F18530C1F13A
:1044D0008091E80083FD30C08091E80082FDEACF42
:1044E0008091E80080FFE1CF8091F3002091F200FD
:1044F000382F6115710519F02830310558F091E019
:104500002830310509F090E02091E8002E772093C3
:10451000E800CBCF81918093F100615071092F5F4A
:104520003F4FE7CF80915B04882341F0853041F015
:104530008091E80083FFBECF81E0089582E0089576
:1045400083E00895FC0180916204909163048617D2
:104550009707A0F06115710529F48091E8008E7726
:104560008093E80090E06115710551F4911108C045
:104570008091E80082FF35C080E00895BC01F2CF51
:1045800080915B048823C9F18530C9F18091E800EE
:1045900083FD31C08091E80082FDEACF8091E80080
:1045A00080FFE1CF8091F3002091F200382F611558
:1045B000710519F02830310558F091E028303105A7
:1045C00009F090E08091E8008E778093E800CBCFEF
:1045D00084918093F1003196615071092F5F3F4FB4
:1045E000E6CF80915B04882341F0853041F08091D3
:1045F000E80083FFBDCF81E0089582E0089583E065
:104600000895982F973028F08F708093E90081E00B
:1046100008959093E900242F762F50E0981731F0F9
:104620007091EC002091ED005091F00021FD02C04E
:104630009F5FE8CF3091EB003E7F3093EB003091ED
:10464000ED003D7F3093ED003091EB003160309311
:10465000EB007093EC002093ED005093F00020915C
:10466000EE0027FDE5CF80E0089580915C0487FF90
:1046700013C08091E80082FF06C08091E8008B772C
:104680008093E80004C080915B048111F2CF08950B
:1046900080915B048823D9F38091E80080FFF8CFF4
:1046A0008091E8008E77ECCF2091E4003091E50016
:1046B00095E6A9012091EC00822F817020FF06C0B1
:1046C0008091E80080FF06C080E008952091E80016
:1046D00022FD1AC080915B04882389F0853089F01F
:1046E0008091EB0085FD0FC02091E4003091E50042
:1046F00042175307F9F29150E1F684E0089582E001
:10470000089583E0089581E008950E94F3230E94B4
:10471000FB23E0EEF0E0808181608083E8EDF0E053
:1047200080818F77808319BCA7EDB0E08C918E7F5C
:104730008C9380818F7E808310925A0408950F930A
:104740001F93CF93DF930E94F3230E94FB23C8EDB6
:10475000D0E088818F77888388818068888388818A
:104760008F7D888319BC10925B04109257041092BD
:1047700059041092580400EE10E0F80180818B7FFC
:10478000808388818160888342E060E080E00E94CD
:104790000123E1EEF0E080818E7F8083E2EEF0E0A5
:1047A000808181608083808188608083F80180813E
:1047B0008E7F8083888180618883DF91CF911F9174
:1047C0000F910895E8EDF0E080818F7E8083E7ED22
:1047D000F0E080818160808384E082BF81E080930B
:1047E0005A040C949F23E8EDF0E080818E7F808353
:1047F0001092E20008951092DA001092E1000895FC
:104800001F920F920FB60F9211242F933F934F9345
:104810005F936F937F938F939F93AF93BF93EF9328
:10482000FF938091E10082FF0BC08091E20082FF44
:1048300007C08091E1008B7F8093E1000E946A268F
:104840008091DA0080FF19C08091D80080FF15C0E8
:104850008091DA008E7F8093DA008091D90080FF0A
:1048600096C080E189BD82E189BD09B400FEFDCF1B
:1048700081E080935B040E945B208091E10080FFD7
:1048800019C08091E20080FF15C08091E2008E7F08
:104890008093E2008091E20080618093E200809149
:1048A000D80080628093D80019BC85E080935B04B7
:1048B0000E946D208091E10084FF2BC08091E20076
:1048C00084FF27C080E189BD82E189BD89B5982F29
:1048D000917080FFFBCF8091D8008F7D8093D800AE
:1048E0008091E1008F7E8093E1008091E2008F7ED5
:1048F0008093E2008091E20081608093E2008091E9
:104900005704882309F449C084E080935B040E9423
:104910006E208091E10083FF29C08091E20083FF37
:1049200025C08091E100877F8093E10082E0809341
:104930005B04109257048091E1008E7F8093E10028
:104940008091E2008E7F8093E2008091E20080619E
:104950008093E20042E060E080E00E9401238091C9
:10496000F00088608093F0000E946C20FF91EF912E
:10497000BF91AF919F918F917F916F915F914F9177
:104980003F912F910F900FBE0F901F90189519BC5B
:1049900010925B040E94692070CF8091E30087FD34
:1049A00093E090935B04B3CF1F920F920FB60F92D8
:1049B00011242F933F934F935F936F937F938F9324
:1049C0009F93AF93BF93CF93DF93EF93FF93D091D8
:1049D000E900DF708091EC00C82FC17080FDC0E855
:1049E0001092E9008091F000877F8093F000789426
:1049F0000E9418251092E9008091F0008860809351
:104A0000F000CD2BCF70C093E900FF91EF91DF91C3
:104A1000CF91BF91AF919F918F917F916F915F9156
:104A20004F913F912F910F900FBE0F901F901895AF
:104A30001F93CF93DF93CDB7DEB7AA970FB6F89445
:104A4000DEBF0FBECDBF8CE594E02091F100FC01EC
:104A50002193CF01F4E084369F07B9F70E947A20B2
:104A60008091E80083FF1EC180915C0490915D04F9
:104A70009A3008F017C1E92FF0E0E85CF84D0C948B
:104A8000BA26803899F0823809F00CC18091600410
:104A90008F70873008F006C18093E9008091EB00A9
:104AA00085FB882780F91092E90006C080915804A0
:104AB00090915904911182609091E800977F9093B2
:104AC000E8008093F1001092F1008091E8008E7769
:104AD000E5C0882309F4D3C0823009F0E3C0809197
:104AE0005E048111D6C0809160048F702FEF280F73
:104AF000263008F0D7C08093E9002091EB0020FF1A
:104B0000C8C0933031F48091EB0080628093EB0059
:104B1000C0C09091EB0090619093EB0021E030E0F9
:104B200001C0220F8A95EAF72093EA001092EA006A
:104B30008091EB008860EACF8111B4C010915E04CF
:104B40001F778091E3008078812B8093E300809130
:104B5000E800877F8093E8000E9435238091E80079
:104B600080FFFCCF8091E30080688093E30082E0C7
:104B7000111183E080935B0495C08058823008F067
:104B800091C080915E0490915F048C3D23E0920778
:104B9000A1F583E08A838AE289834FB7F894DE0126
:104BA000139620E03EE051E2E32FF0E050935700EF
:104BB000E49120FF03C0E295EF703F5FEF708E2F0E
:104BC00090E0EA30C0F0C7968D939D932F5F24311B
:104BD00059F74FBF8091E800877F8093E8006AE231
:104BE00070E0CE0101960E9444228091E8008B770C
:104BF0008093E80057C0C096E7CF60916004709141
:104C00006104AE014F5F5F4F0E947021BC01892B90
:104C100009F448C09091E800977F9093E80089815B
:104C20009A810E94A222E1CF8038E1F58091E800CC
:104C3000877F8093E800809157048093F10045CFEF
:104C4000811130C090915E04923060F58091E8004F
:104C5000877F8093E800909357040E9435238091CA
:104C60005704882311F084E005C08091E30087FD9C
:104C7000FACF81E080935B040E94702013C0809182
:104C80005E04813079F481E0933009F080E0809314
:104C900059041092E9008091E800877F8093E80032
:104CA0000E9435238091E80083FF0AC08091E800CC
:104CB000877F8093E8008091EB0080628093EB0017
:104CC000AA960FB6F894DEBF0FBECDBFDF91CF918D
:104CD0001F9108950895CF9380915B048823A1F0DC
:104CE000C091E900CF709091EC00892F817090FD08
:104CF00080E8C82B1092E9008091E80083FD0E94B3
:104D00001825CF70C093E900CF910895991B79E0E1
:104D100004C0991F961708F0961B881F7A95C9F74B
:104D200080950895AA1BBB1B51E107C0AA1FBB1F9A
:104D3000A617B70710F0A61BB70B881F991F5A9527
:104D4000A9F780959095BC01CD01089597FB072E9A
:104D500016F4009407D077FD09D00E94922607FC34
:104D600005D03EF4909581959F4F0895709561957B
:104D70007F4F0895EE0FFF1F0590F491E02D0994E9
:104D8000FB01DC0102C005900D9241505040D8F764
:104D90000895FB01DC0104C08D910190801921F47C
:104DA00041505040C8F7881B990B0895F999FECFE0
:104DB00092BD81BDF89A992780B50895A8E1B0E029
:104DC00042E050E00C940A27262FF999FECF92BDBD
:104DD00081BDF89A019700B4021639F01FBA20BDC0
:104DE0000FB6F894FA9AF99A0FBE08950396272FF2
:104DF0000E94E5260E94E426252F0E94E526242F06
:104E00000C94E5260196272F0E94E5260C94E426B3
:104E1000DC01CB01FC01F999FECF06C0F2BDE1BD7A
:104E2000F89A319600B40D9241505040B8F7089569
:104E3000F894FFCF5E125E12B612B6120813241356
:104E40008B128B122F13BB13CA13CA1326148B1287
:104E50008B122F14A414A414AD14AD14AF14AD14FC
:104E6000AD14AD14A414A414B414AD14AD14B4143E
:104E7000412569255226692552269C25BD255226A5
:044E800014262026AE
:104E84000021007F22000323022808641E140A3232
:104E94001EB11F2820FD1FF91FE71F01E200E900D2
:104EA400EA00B500B600B700CD008301CC008A014A
:104EB40092019401210223022402250226022702E0
:104EC4002A02B300B4006F0070008182836697C623
:104ED40034F600FF0100010000FFFF0000010001A3
:104EE400FF000008101818100800E200E900EA00AA
:104EF400B500B600B700CD008301CC008A01920151
:104F040094012102230224022502260227022A02F6
:0C4F1400B300B4006F00700081828300C5
:00000001FF
